{
  "_format": "hh-sol-artifact-1",
  "contractName": "InterestManagerCompound",
  "sourceName": "contracts/core/InterestManagerCompound.sol",
  "abi": [
    {
      "anonymous": false,
      "inputs": [
        {
          "indexed": false,
          "internalType": "address",
          "name": "oldOwner",
          "type": "address"
        },
        {
          "indexed": false,
          "internalType": "address",
          "name": "newOwner",
          "type": "address"
        }
      ],
      "name": "OwnershipChanged",
      "type": "event"
    },
    {
      "inputs": [],
      "name": "accrueInterest",
      "outputs": [],
      "stateMutability": "nonpayable",
      "type": "function"
    },
    {
      "inputs": [],
      "name": "getOwner",
      "outputs": [
        {
          "internalType": "address",
          "name": "",
          "type": "address"
        }
      ],
      "stateMutability": "view",
      "type": "function"
    },
    {
      "inputs": [
        {
          "internalType": "address",
          "name": "owner",
          "type": "address"
        },
        {
          "internalType": "address",
          "name": "dai",
          "type": "address"
        },
        {
          "internalType": "address",
          "name": "cDai",
          "type": "address"
        },
        {
          "internalType": "address",
          "name": "comp",
          "type": "address"
        },
        {
          "internalType": "address",
          "name": "compRecipient",
          "type": "address"
        }
      ],
      "name": "initialize",
      "outputs": [],
      "stateMutability": "nonpayable",
      "type": "function"
    },
    {
      "inputs": [
        {
          "internalType": "uint256",
          "name": "amount",
          "type": "uint256"
        }
      ],
      "name": "invest",
      "outputs": [
        {
          "internalType": "uint256",
          "name": "",
          "type": "uint256"
        }
      ],
      "stateMutability": "nonpayable",
      "type": "function"
    },
    {
      "inputs": [
        {
          "internalType": "uint256",
          "name": "investmentTokenAmount",
          "type": "uint256"
        }
      ],
      "name": "investmentTokenToUnderlying",
      "outputs": [
        {
          "internalType": "uint256",
          "name": "",
          "type": "uint256"
        }
      ],
      "stateMutability": "view",
      "type": "function"
    },
    {
      "inputs": [
        {
          "internalType": "address",
          "name": "recipient",
          "type": "address"
        },
        {
          "internalType": "uint256",
          "name": "amount",
          "type": "uint256"
        }
      ],
      "name": "redeem",
      "outputs": [
        {
          "internalType": "uint256",
          "name": "",
          "type": "uint256"
        }
      ],
      "stateMutability": "nonpayable",
      "type": "function"
    },
    {
      "inputs": [
        {
          "internalType": "address",
          "name": "recipient",
          "type": "address"
        },
        {
          "internalType": "uint256",
          "name": "amount",
          "type": "uint256"
        }
      ],
      "name": "redeemInvestmentToken",
      "outputs": [
        {
          "internalType": "uint256",
          "name": "",
          "type": "uint256"
        }
      ],
      "stateMutability": "nonpayable",
      "type": "function"
    },
    {
      "inputs": [
        {
          "internalType": "address",
          "name": "newOwner",
          "type": "address"
        }
      ],
      "name": "setOwner",
      "outputs": [],
      "stateMutability": "nonpayable",
      "type": "function"
    },
    {
      "inputs": [
        {
          "internalType": "uint256",
          "name": "underlyingAmount",
          "type": "uint256"
        }
      ],
      "name": "underlyingToInvestmentToken",
      "outputs": [
        {
          "internalType": "uint256",
          "name": "",
          "type": "uint256"
        }
      ],
      "stateMutability": "view",
      "type": "function"
    },
    {
      "inputs": [],
      "name": "withdrawComp",
      "outputs": [],
      "stateMutability": "nonpayable",
      "type": "function"
    }
  ],
  "bytecode": "0x608060405234801561001057600080fd5b50611330806100206000396000f3fe608060405234801561001057600080fd5b506004361061009e5760003560e01c8063893d20e811610066578063893d20e81461010c578063a6afed9514610127578063d84d5e901461012f578063df6395ce14610142578063f3e08e1f1461015557600080fd5b806313af4035146100a35780631459457a146100b85780631e9a6950146100cb5780632afcf480146100f157806338e41a2214610104575b600080fd5b6100b66100b1366004611132565b610168565b005b6100b66100c636600461116a565b6101a7565b6100de6100d93660046111da565b610333565b6040519081526020015b60405180910390f35b6100de6100ff366004611225565b6105e1565b6100b6610957565b6000546040516001600160a01b0390911681526020016100e8565b6100b6610b75565b6100de61013d366004611225565b610c35565b6100de610150366004611225565b610ccc565b6100de6101633660046111da565b610d5d565b6000546001600160a01b0316331461019b5760405162461bcd60e51b815260040161019290611255565b60405180910390fd5b6101a481611006565b50565b600054600160a81b900460ff16806101be5750303b155b806101d35750600054600160a01b900460ff16155b6102155760405162461bcd60e51b8152602060048201526013602482015272185b1c9958591e4b5a5b9a5d1a585b1a5e9959606a1b6044820152606401610192565b600054600160a81b900460ff1615801561023f576000805461ffff60a01b191661010160a01b1790555b6001600160a01b0385161580159061025f57506001600160a01b03841615155b801561027357506001600160a01b03831615155b801561028757506001600160a01b03821615155b6102c45760405162461bcd60e51b815260206004820152600e60248201526d696e76616c69642d706172616d7360901b6044820152606401610192565b6102cd86611006565b603380546001600160a01b038088166001600160a01b03199283161790925560348054878416908316179055603580548684169083161790556036805492851692909116919091179055801561032b576000805460ff60a81b191690555b505050505050565b600080546001600160a01b0316331461035e5760405162461bcd60e51b815260040161019290611255565b6034546040516370a0823160e01b81523060048201526000916001600160a01b0316906370a082319060240160206040518083038186803b1580156103a257600080fd5b505afa1580156103b6573d6000803e3d6000fd5b505050506040513d601f19601f820116820180604052508101906103da919061123d565b60345460405163852a12e360e01b8152600481018690529192506001600160a01b03169063852a12e390602401602060405180830381600087803b15801561042157600080fd5b505af1158015610435573d6000803e3d6000fd5b505050506040513d601f19601f82011682018060405250810190610459919061123d565b1561048f5760405162461bcd60e51b815260206004820152600660248201526572656465656d60d01b6044820152606401610192565b6034546040516370a0823160e01b81523060048201526000916001600160a01b0316906370a082319060240160206040518083038186803b1580156104d357600080fd5b505afa1580156104e7573d6000803e3d6000fd5b505050506040513d601f19601f8201168201806040525081019061050b919061123d565b60335460405163a9059cbb60e01b81526001600160a01b0388811660048301526024820188905292935091169063a9059cbb90604401602060405180830381600087803b15801561055b57600080fd5b505af115801561056f573d6000803e3d6000fd5b505050506040513d601f19601f820116820180604052508101906105939190611205565b6105ce5760405162461bcd60e51b815260206004820152600c60248201526b3230b496ba3930b739b332b960a11b6044820152606401610192565b6105d881836112b8565b95945050505050565b600080546001600160a01b0316331461060c5760405162461bcd60e51b815260040161019290611255565b6034546040516370a0823160e01b81523060048201526000916001600160a01b0316906370a082319060240160206040518083038186803b15801561065057600080fd5b505afa158015610664573d6000803e3d6000fd5b505050506040513d601f19601f82011682018060405250810190610688919061123d565b6033546040516370a0823160e01b815230600482015291925084916001600160a01b03909116906370a082319060240160206040518083038186803b1580156106d057600080fd5b505afa1580156106e4573d6000803e3d6000fd5b505050506040513d601f19601f82011682018060405250810190610708919061123d565b10156107495760405162461bcd60e51b815260206004820152601060248201526f696e73756666696369656e742d64616960801b6044820152606401610192565b60335460345460405163095ea7b360e01b81526001600160a01b0391821660048201526024810186905291169063095ea7b390604401602060405180830381600087803b15801561079957600080fd5b505af11580156107ad573d6000803e3d6000fd5b505050506040513d601f19601f820116820180604052508101906107d19190611205565b6108105760405162461bcd60e51b815260206004820152601060248201526f6461692d636461692d617070726f766560801b6044820152606401610192565b60345460405163140e25ad60e31b8152600481018590526001600160a01b039091169063a0712d6890602401602060405180830381600087803b15801561085657600080fd5b505af115801561086a573d6000803e3d6000fd5b505050506040513d601f19601f8201168201806040525081019061088e919061123d565b156108c75760405162461bcd60e51b815260206004820152600960248201526818d9185a4b5b5a5b9d60ba1b6044820152606401610192565b6034546040516370a0823160e01b81523060048201526000916001600160a01b0316906370a082319060240160206040518083038186803b15801561090b57600080fd5b505afa15801561091f573d6000803e3d6000fd5b505050506040513d601f19601f82011682018060405250810190610943919061123d565b905061094f82826112b8565b949350505050565b60345460408051635fe3b56760e01b8152905130926001600160a01b031691635fe3b567916004808301926020929190829003018186803b15801561099b57600080fd5b505afa1580156109af573d6000803e3d6000fd5b505050506040513d601f19601f820116820180604052508101906109d3919061114e565b6040516374d7814960e11b81526001600160a01b038381166004830152919091169063e9af029290602401600060405180830381600087803b158015610a1857600080fd5b505af1158015610a2c573d6000803e3d6000fd5b50506035546036546040516370a0823160e01b81526001600160a01b038681166004830152928316945063a9059cbb935091169083906370a082319060240160206040518083038186803b158015610a8357600080fd5b505afa158015610a97573d6000803e3d6000fd5b505050506040513d601f19601f82011682018060405250810190610abb919061123d565b6040516001600160e01b031960e085901b1681526001600160a01b0390921660048301526024820152604401602060405180830381600087803b158015610b0157600080fd5b505af1158015610b15573d6000803e3d6000fd5b505050506040513d601f19601f82011682018060405250810190610b399190611205565b6101a45760405162461bcd60e51b815260206004820152600d60248201526c31b7b6b816ba3930b739b332b960991b6044820152606401610192565b603460009054906101000a90046001600160a01b03166001600160a01b031663a6afed956040518163ffffffff1660e01b8152600401602060405180830381600087803b158015610bc557600080fd5b505af1158015610bd9573d6000803e3d6000fd5b505050506040513d601f19601f82011682018060405250810190610bfd919061123d565b15610c335760405162461bcd60e51b815260206004820152600660248201526561636372756560d01b6044820152606401610192565b565b6000610cc682603460009054906101000a90046001600160a01b03166001600160a01b031663182df0f56040518163ffffffff1660e01b815260040160206040518083038186803b158015610c8957600080fd5b505afa158015610c9d573d6000803e3d6000fd5b505050506040513d601f19601f82011682018060405250810190610cc1919061123d565b6110a9565b92915050565b6000610cc682603460009054906101000a90046001600160a01b03166001600160a01b031663182df0f56040518163ffffffff1660e01b815260040160206040518083038186803b158015610d2057600080fd5b505afa158015610d34573d6000803e3d6000fd5b505050506040513d601f19601f82011682018060405250810190610d58919061123d565b6110c1565b600080546001600160a01b03163314610d885760405162461bcd60e51b815260040161019290611255565b6033546040516370a0823160e01b81523060048201526000916001600160a01b0316906370a082319060240160206040518083038186803b158015610dcc57600080fd5b505afa158015610de0573d6000803e3d6000fd5b505050506040513d601f19601f82011682018060405250810190610e04919061123d565b60345460405163db006a7560e01b8152600481018690529192506001600160a01b03169063db006a7590602401602060405180830381600087803b158015610e4b57600080fd5b505af1158015610e5f573d6000803e3d6000fd5b505050506040513d601f19601f82011682018060405250810190610e83919061123d565b15610eb95760405162461bcd60e51b815260206004820152600660248201526572656465656d60d01b6044820152606401610192565b6033546040516370a0823160e01b815230600482015260009183916001600160a01b03909116906370a082319060240160206040518083038186803b158015610f0157600080fd5b505afa158015610f15573d6000803e3d6000fd5b505050506040513d601f19601f82011682018060405250810190610f39919061123d565b610f4391906112b8565b60335460405163a9059cbb60e01b81526001600160a01b0388811660048301526024820184905292935091169063a9059cbb90604401602060405180830381600087803b158015610f9357600080fd5b505af1158015610fa7573d6000803e3d6000fd5b505050506040513d601f19601f82011682018060405250810190610fcb9190611205565b61094f5760405162461bcd60e51b815260206004820152600c60248201526b3230b496ba3930b739b332b960a11b6044820152606401610192565b6001600160a01b0381166110485760405162461bcd60e51b81526020600482015260096024820152683d32b93796b0b2323960b91b6044820152606401610192565b600080546001600160a01b038381166001600160a01b031983168117909355604080519190921680825260208201939093527f0384899bd253d83b23daa4d29aaa2efe0563d1132b43101e9ad667235aeb951b910160405180910390a15050565b6000806110b684846110ce565b905061094f816110e1565b6000806110b684846110f5565b60006110da8284611299565b9392505050565b6000610cc6670de0b6b3a764000083611279565b60008061110a84670de0b6b3a7640000611299565b905061094f818460008061112684670de0b6b3a7640000611299565b905061094f8382611279565b600060208284031215611143578081fd5b81356110da816112e5565b60006020828403121561115f578081fd5b81516110da816112e5565b600080600080600060a08688031215611181578081fd5b853561118c816112e5565b9450602086013561119c816112e5565b935060408601356111ac816112e5565b925060608601356111bc816112e5565b915060808601356111cc816112e5565b809150509295509295909350565b600080604083850312156111ec578182fd5b82356111f7816112e5565b946020939093013593505050565b600060208284031215611216578081fd5b815180151581146110da578182fd5b600060208284031215611236578081fd5b5035919050565b60006020828403121561124e578081fd5b5051919050565b6020808252600a908201526937b7363c96b7bbb732b960b11b604082015260600190565b60008261129457634e487b7160e01b81526012600452602481fd5b500490565b60008160001904831182151516156112b3576112b36112cf565b500290565b6000828210156112ca576112ca6112cf565b500390565b634e487b7160e01b600052601160045260246000fd5b6001600160a01b03811681146101a457600080fdfea2646970667358221220457d427c400371ea14eb7bbd5682a9d6ac58e6284fd937b9eb564bdf34dd0c8b64736f6c63430008040033",
  "linkReferences": {},
  "deployedLinkReferences": {}
}