{
  "_format": "hh-sol-artifact-1",
  "contractName": "TestCDai",
  "sourceName": "contracts/test/TestCDai.sol",
  "abi": [
    {
      "inputs": [
        {
          "internalType": "address",
          "name": "dai",
          "type": "address"
        },
        {
          "internalType": "address",
          "name": "comp",
          "type": "address"
        },
        {
          "internalType": "address",
          "name": "comptroller_",
          "type": "address"
        }
      ],
      "stateMutability": "nonpayable",
      "type": "constructor"
    },
    {
      "anonymous": false,
      "inputs": [
        {
          "indexed": true,
          "internalType": "address",
          "name": "owner",
          "type": "address"
        },
        {
          "indexed": true,
          "internalType": "address",
          "name": "spender",
          "type": "address"
        },
        {
          "indexed": false,
          "internalType": "uint256",
          "name": "value",
          "type": "uint256"
        }
      ],
      "name": "Approval",
      "type": "event"
    },
    {
      "anonymous": false,
      "inputs": [
        {
          "indexed": true,
          "internalType": "address",
          "name": "from",
          "type": "address"
        },
        {
          "indexed": true,
          "internalType": "address",
          "name": "to",
          "type": "address"
        },
        {
          "indexed": false,
          "internalType": "uint256",
          "name": "value",
          "type": "uint256"
        }
      ],
      "name": "Transfer",
      "type": "event"
    },
    {
      "inputs": [],
      "name": "accrueInterest",
      "outputs": [
        {
          "internalType": "uint256",
          "name": "",
          "type": "uint256"
        }
      ],
      "stateMutability": "nonpayable",
      "type": "function"
    },
    {
      "inputs": [
        {
          "internalType": "address",
          "name": "owner",
          "type": "address"
        },
        {
          "internalType": "address",
          "name": "spender",
          "type": "address"
        }
      ],
      "name": "allowance",
      "outputs": [
        {
          "internalType": "uint256",
          "name": "",
          "type": "uint256"
        }
      ],
      "stateMutability": "view",
      "type": "function"
    },
    {
      "inputs": [
        {
          "internalType": "address",
          "name": "spender",
          "type": "address"
        },
        {
          "internalType": "uint256",
          "name": "amount",
          "type": "uint256"
        }
      ],
      "name": "approve",
      "outputs": [
        {
          "internalType": "bool",
          "name": "",
          "type": "bool"
        }
      ],
      "stateMutability": "nonpayable",
      "type": "function"
    },
    {
      "inputs": [
        {
          "internalType": "address",
          "name": "account",
          "type": "address"
        }
      ],
      "name": "balanceOf",
      "outputs": [
        {
          "internalType": "uint256",
          "name": "",
          "type": "uint256"
        }
      ],
      "stateMutability": "view",
      "type": "function"
    },
    {
      "inputs": [],
      "name": "comptroller",
      "outputs": [
        {
          "internalType": "address",
          "name": "",
          "type": "address"
        }
      ],
      "stateMutability": "view",
      "type": "function"
    },
    {
      "inputs": [],
      "name": "decimals",
      "outputs": [
        {
          "internalType": "uint8",
          "name": "",
          "type": "uint8"
        }
      ],
      "stateMutability": "view",
      "type": "function"
    },
    {
      "inputs": [
        {
          "internalType": "address",
          "name": "spender",
          "type": "address"
        },
        {
          "internalType": "uint256",
          "name": "subtractedValue",
          "type": "uint256"
        }
      ],
      "name": "decreaseAllowance",
      "outputs": [
        {
          "internalType": "bool",
          "name": "",
          "type": "bool"
        }
      ],
      "stateMutability": "nonpayable",
      "type": "function"
    },
    {
      "inputs": [],
      "name": "exchangeRateStored",
      "outputs": [
        {
          "internalType": "uint256",
          "name": "",
          "type": "uint256"
        }
      ],
      "stateMutability": "view",
      "type": "function"
    },
    {
      "inputs": [
        {
          "internalType": "address",
          "name": "spender",
          "type": "address"
        },
        {
          "internalType": "uint256",
          "name": "addedValue",
          "type": "uint256"
        }
      ],
      "name": "increaseAllowance",
      "outputs": [
        {
          "internalType": "bool",
          "name": "",
          "type": "bool"
        }
      ],
      "stateMutability": "nonpayable",
      "type": "function"
    },
    {
      "inputs": [
        {
          "internalType": "uint256",
          "name": "mintAmount",
          "type": "uint256"
        }
      ],
      "name": "mint",
      "outputs": [
        {
          "internalType": "uint256",
          "name": "",
          "type": "uint256"
        }
      ],
      "stateMutability": "nonpayable",
      "type": "function"
    },
    {
      "inputs": [],
      "name": "name",
      "outputs": [
        {
          "internalType": "string",
          "name": "",
          "type": "string"
        }
      ],
      "stateMutability": "view",
      "type": "function"
    },
    {
      "inputs": [
        {
          "internalType": "uint256",
          "name": "redeemAmount",
          "type": "uint256"
        }
      ],
      "name": "redeem",
      "outputs": [
        {
          "internalType": "uint256",
          "name": "",
          "type": "uint256"
        }
      ],
      "stateMutability": "nonpayable",
      "type": "function"
    },
    {
      "inputs": [
        {
          "internalType": "uint256",
          "name": "redeemAmount",
          "type": "uint256"
        }
      ],
      "name": "redeemUnderlying",
      "outputs": [
        {
          "internalType": "uint256",
          "name": "",
          "type": "uint256"
        }
      ],
      "stateMutability": "nonpayable",
      "type": "function"
    },
    {
      "inputs": [
        {
          "internalType": "uint256",
          "name": "exchangeRate",
          "type": "uint256"
        }
      ],
      "name": "setExchangeRate",
      "outputs": [],
      "stateMutability": "nonpayable",
      "type": "function"
    },
    {
      "inputs": [],
      "name": "symbol",
      "outputs": [
        {
          "internalType": "string",
          "name": "",
          "type": "string"
        }
      ],
      "stateMutability": "view",
      "type": "function"
    },
    {
      "inputs": [],
      "name": "totalSupply",
      "outputs": [
        {
          "internalType": "uint256",
          "name": "",
          "type": "uint256"
        }
      ],
      "stateMutability": "view",
      "type": "function"
    },
    {
      "inputs": [
        {
          "internalType": "address",
          "name": "to",
          "type": "address"
        },
        {
          "internalType": "uint256",
          "name": "amount",
          "type": "uint256"
        }
      ],
      "name": "transfer",
      "outputs": [
        {
          "internalType": "bool",
          "name": "",
          "type": "bool"
        }
      ],
      "stateMutability": "nonpayable",
      "type": "function"
    },
    {
      "inputs": [
        {
          "internalType": "address",
          "name": "from",
          "type": "address"
        },
        {
          "internalType": "address",
          "name": "to",
          "type": "address"
        },
        {
          "internalType": "uint256",
          "name": "amount",
          "type": "uint256"
        }
      ],
      "name": "transferFrom",
      "outputs": [
        {
          "internalType": "bool",
          "name": "",
          "type": "bool"
        }
      ],
      "stateMutability": "nonpayable",
      "type": "function"
    }
  ],
  "bytecode": "0x60806040523480156200001157600080fd5b50604051620015bb380380620015bb833981016040819052620000349162000192565b6040805180820182526004808252636344616960e01b6020808401828152855180870190965292855284015281519192916200007391600391620000cf565b50805162000089906004906020840190620000cf565b5050600580546001600160a01b039586166001600160a01b0319918216179091556006805494861694821694909417909355506008805491909316911617905562000218565b828054620000dd90620001db565b90600052602060002090601f0160209004810192826200010157600085556200014c565b82601f106200011c57805160ff19168380011785556200014c565b828001600101855582156200014c579182015b828111156200014c5782518255916020019190600101906200012f565b506200015a9291506200015e565b5090565b5b808211156200015a57600081556001016200015f565b80516001600160a01b03811681146200018d57600080fd5b919050565b600080600060608486031215620001a7578283fd5b620001b28462000175565b9250620001c26020850162000175565b9150620001d26040850162000175565b90509250925092565b600181811c90821680620001f057607f821691505b602082108114156200021257634e487b7160e01b600052602260045260246000fd5b50919050565b61139380620002286000396000f3fe608060405234801561001057600080fd5b50600436106101165760003560e01c8063852a12e3116100a2578063a6afed9511610071578063a6afed9514610230578063a9059cbb14610237578063db006a751461024a578063db068e0e1461025d578063dd62ed3e1461027257600080fd5b8063852a12e3146101ef57806395d89b4114610202578063a0712d681461020a578063a457c2d71461021d57600080fd5b806323b872dd116100e957806323b872dd14610176578063313ce5671461018957806339509351146101985780635fe3b567146101ab57806370a08231146101c657600080fd5b806306fdde031461011b578063095ea7b31461013957806318160ddd1461015c578063182df0f51461016e575b600080fd5b6101236102ab565b604051610130919061124b565b60405180910390f35b61014c6101473660046111d2565b61033d565b6040519015158152602001610130565b6002545b604051908152602001610130565b600754610160565b61014c610184366004611197565b610355565b60405160128152602001610130565b61014c6101a63660046111d2565b610379565b6008546040516001600160a01b039091168152602001610130565b6101606101d436600461114b565b6001600160a01b031660009081526020819052604090205490565b6101606101fd36600461121b565b6103b8565b6101236105de565b61016061021836600461121b565b6105ed565b61014c61022b3660046111d2565b610825565b6000610160565b61014c6102453660046111d2565b6108b7565b61016061025836600461121b565b6108c5565b61027061026b36600461121b565b610a7f565b005b610160610280366004611165565b6001600160a01b03918216600090815260016020908152604080832093909416825291909152205490565b6060600380546102ba9061130c565b80601f01602080910402602001604051908101604052809291908181526020018280546102e69061130c565b80156103335780601f1061030857610100808354040283529160200191610333565b820191906000526020600020905b81548152906001019060200180831161031657829003601f168201915b5050505050905090565b60003361034b818585610ae9565b5060019392505050565b600033610363858285610c0e565b61036e858585610ca0565b506001949350505050565b3360008181526001602090815260408083206001600160a01b038716845290915281205490919061034b90829086906103b390879061129e565b610ae9565b6000806103cd836103c860075490565b610e6e565b336000908152602081905260409020549091508111156104465760405162461bcd60e51b815260206004820152602960248201527f634461692072656465656d556e6465726c79696e673a206e6f7420656e6f7567604482015268682062616c616e636560b81b60648201526084015b60405180910390fd5b6104503382610e8e565b6005546040516370a0823160e01b81523060048201526000916001600160a01b0316906370a082319060240160206040518083038186803b15801561049457600080fd5b505afa1580156104a8573d6000803e3d6000fd5b505050506040513d601f19601f820116820180604052508101906104cc9190611233565b905083811015610551576005546001600160a01b03166340c10f19306104f284886112f5565b6040516001600160e01b031960e085901b1681526001600160a01b0390921660048301526024820152604401600060405180830381600087803b15801561053857600080fd5b505af115801561054c573d6000803e3d6000fd5b505050505b60055460405163a9059cbb60e01b8152336004820152602481018690526001600160a01b039091169063a9059cbb906044015b602060405180830381600087803b15801561059e57600080fd5b505af11580156105b2573d6000803e3d6000fd5b505050506040513d601f19601f820116820180604052508101906105d691906111fb565b505050919050565b6060600480546102ba9061130c565b600554604051636eb1769f60e11b815233600482015230602482015260009183916001600160a01b039091169063dd62ed3e9060440160206040518083038186803b15801561063b57600080fd5b505afa15801561064f573d6000803e3d6000fd5b505050506040513d601f19601f820116820180604052508101906106739190611233565b10156106c15760405162461bcd60e51b815260206004820152601f60248201527f63446169206d696e743a206e6f7420656e6f75676820616c6c6f77616e636500604482015260640161043d565b6005546040516323b872dd60e01b8152336004820152306024820152604481018490526001600160a01b03909116906323b872dd90606401602060405180830381600087803b15801561071357600080fd5b505af1158015610727573d6000803e3d6000fd5b505050506040513d601f19601f8201168201806040525081019061074b91906111fb565b6107975760405162461bcd60e51b815260206004820152601e60248201527f63446169206d696e743a20646169207472616e73666572206661696c65640000604482015260640161043d565b60006107a6836103c860075490565b90506107b23382610fd4565b6006546040516340c10f1960e01b8152336004820152670de0b6b3a764000060248201819052916001600160a01b0316906340c10f1990604401600060405180830381600087803b15801561080657600080fd5b505af115801561081a573d6000803e3d6000fd5b505050505050919050565b3360008181526001602090815260408083206001600160a01b0387168452909152812054909190838110156108aa5760405162461bcd60e51b815260206004820152602560248201527f45524332303a2064656372656173656420616c6c6f77616e63652062656c6f77604482015264207a65726f60d81b606482015260840161043d565b61036e8286868403610ae9565b60003361034b818585610ca0565b336000908152602081905260408120548211156109245760405162461bcd60e51b815260206004820152601f60248201527f634461692072656465656d3a206e6f7420656e6f7567682062616c616e636500604482015260640161043d565b61092e3383610e8e565b600061094261093c60075490565b846110b3565b6005546040516370a0823160e01b81523060048201529192506000916001600160a01b03909116906370a082319060240160206040518083038186803b15801561098b57600080fd5b505afa15801561099f573d6000803e3d6000fd5b505050506040513d601f19601f820116820180604052508101906109c39190611233565b905081811015610a48576005546001600160a01b03166340c10f19306109e984866112f5565b6040516001600160e01b031960e085901b1681526001600160a01b0390921660048301526024820152604401600060405180830381600087803b158015610a2f57600080fd5b505af1158015610a43573d6000803e3d6000fd5b505050505b60055460405163a9059cbb60e01b8152336004820152602481018490526001600160a01b039091169063a9059cbb90604401610584565b600754811015610ae45760405162461bcd60e51b815260206004820152602a60248201527f54657374434461693a206e65772065786368616e67652072617465206d757374604482015269103132903630b933b2b960b11b606482015260840161043d565b600755565b6001600160a01b038316610b4b5760405162461bcd60e51b8152602060048201526024808201527f45524332303a20617070726f76652066726f6d20746865207a65726f206164646044820152637265737360e01b606482015260840161043d565b6001600160a01b038216610bac5760405162461bcd60e51b815260206004820152602260248201527f45524332303a20617070726f766520746f20746865207a65726f206164647265604482015261737360f01b606482015260840161043d565b6001600160a01b0383811660008181526001602090815260408083209487168084529482529182902085905590518481527f8c5be1e5ebec7d5bd14f71427d1e84f3dd0314c0f7b2291e5b200ac8c7c3b92591015b60405180910390a3505050565b6001600160a01b038381166000908152600160209081526040808320938616835292905220546000198114610c9a5781811015610c8d5760405162461bcd60e51b815260206004820152601d60248201527f45524332303a20696e73756666696369656e7420616c6c6f77616e6365000000604482015260640161043d565b610c9a8484848403610ae9565b50505050565b6001600160a01b038316610d045760405162461bcd60e51b815260206004820152602560248201527f45524332303a207472616e736665722066726f6d20746865207a65726f206164604482015264647265737360d81b606482015260840161043d565b6001600160a01b038216610d665760405162461bcd60e51b815260206004820152602360248201527f45524332303a207472616e7366657220746f20746865207a65726f206164647260448201526265737360e81b606482015260840161043d565b6001600160a01b03831660009081526020819052604090205481811015610dde5760405162461bcd60e51b815260206004820152602660248201527f45524332303a207472616e7366657220616d6f756e7420657863656564732062604482015265616c616e636560d01b606482015260840161043d565b6001600160a01b03808516600090815260208190526040808220858503905591851681529081208054849290610e1590849061129e565b92505081905550826001600160a01b0316846001600160a01b03167fddf252ad1be2c89b69c2b068fc378daa952ba7f163c4a11628f55a4df523b3ef84604051610e6191815260200190565b60405180910390a3610c9a565b600080610e7b84846110c0565b9050610e86816110e1565b949350505050565b6001600160a01b038216610eee5760405162461bcd60e51b815260206004820152602160248201527f45524332303a206275726e2066726f6d20746865207a65726f206164647265736044820152607360f81b606482015260840161043d565b6001600160a01b03821660009081526020819052604090205481811015610f625760405162461bcd60e51b815260206004820152602260248201527f45524332303a206275726e20616d6f756e7420657863656564732062616c616e604482015261636560f01b606482015260840161043d565b6001600160a01b0383166000908152602081905260408120838303905560028054849290610f919084906112f5565b90915550506040518281526000906001600160a01b038516907fddf252ad1be2c89b69c2b068fc378daa952ba7f163c4a11628f55a4df523b3ef90602001610c01565b6001600160a01b03821661102a5760405162461bcd60e51b815260206004820152601f60248201527f45524332303a206d696e7420746f20746865207a65726f206164647265737300604482015260640161043d565b806002600082825461103c919061129e565b90915550506001600160a01b0382166000908152602081905260408120805483929061106990849061129e565b90915550506040518181526001600160a01b038316906000907fddf252ad1be2c89b69c2b068fc378daa952ba7f163c4a11628f55a4df523b3ef9060200160405180910390a35050565b600080610e7b84846110fb565b6000806110d584670de0b6b3a76400006112d6565b9050610e86818461110e565b60006110f5670de0b6b3a7640000836112b6565b92915050565b600061110782846112d6565b9392505050565b60008061112384670de0b6b3a76400006112d6565b9050610e8683826112b6565b80356001600160a01b038116811461114657600080fd5b919050565b60006020828403121561115c578081fd5b6111078261112f565b60008060408385031215611177578081fd5b6111808361112f565b915061118e6020840161112f565b90509250929050565b6000806000606084860312156111ab578081fd5b6111b48461112f565b92506111c26020850161112f565b9150604084013590509250925092565b600080604083850312156111e4578182fd5b6111ed8361112f565b946020939093013593505050565b60006020828403121561120c578081fd5b81518015158114611107578182fd5b60006020828403121561122c578081fd5b5035919050565b600060208284031215611244578081fd5b5051919050565b6000602080835283518082850152825b818110156112775785810183015185820160400152820161125b565b818111156112885783604083870101525b50601f01601f1916929092016040019392505050565b600082198211156112b1576112b1611347565b500190565b6000826112d157634e487b7160e01b81526012600452602481fd5b500490565b60008160001904831182151516156112f0576112f0611347565b500290565b60008282101561130757611307611347565b500390565b600181811c9082168061132057607f821691505b6020821081141561134157634e487b7160e01b600052602260045260246000fd5b50919050565b634e487b7160e01b600052601160045260246000fdfea2646970667358221220c6c3b4bb7c3f5961b19749d48a4a2f50123203aaf93d1ded6b31692f88f28e0164736f6c63430008040033",
  "linkReferences": {},
  "deployedLinkReferences": {}
}