{
  "_format": "hh-sol-artifact-1",
  "contractName": "TestCDai",
  "sourceName": "contracts/test/TestCDai.sol",
  "abi": [
    {
      "inputs": [
        {
          "internalType": "address",
          "name": "dai",
          "type": "address"
        },
        {
          "internalType": "address",
          "name": "comp",
          "type": "address"
        },
        {
          "internalType": "address",
          "name": "comptroller_",
          "type": "address"
        }
      ],
      "stateMutability": "nonpayable",
      "type": "constructor"
    },
    {
      "anonymous": false,
      "inputs": [
        {
          "indexed": true,
          "internalType": "address",
          "name": "owner",
          "type": "address"
        },
        {
          "indexed": true,
          "internalType": "address",
          "name": "spender",
          "type": "address"
        },
        {
          "indexed": false,
          "internalType": "uint256",
          "name": "value",
          "type": "uint256"
        }
      ],
      "name": "Approval",
      "type": "event"
    },
    {
      "anonymous": false,
      "inputs": [
        {
          "indexed": true,
          "internalType": "address",
          "name": "from",
          "type": "address"
        },
        {
          "indexed": true,
          "internalType": "address",
          "name": "to",
          "type": "address"
        },
        {
          "indexed": false,
          "internalType": "uint256",
          "name": "value",
          "type": "uint256"
        }
      ],
      "name": "Transfer",
      "type": "event"
    },
    {
      "inputs": [],
      "name": "accrueInterest",
      "outputs": [
        {
          "internalType": "uint256",
          "name": "",
          "type": "uint256"
        }
      ],
      "stateMutability": "nonpayable",
      "type": "function"
    },
    {
      "inputs": [
        {
          "internalType": "address",
          "name": "owner",
          "type": "address"
        },
        {
          "internalType": "address",
          "name": "spender",
          "type": "address"
        }
      ],
      "name": "allowance",
      "outputs": [
        {
          "internalType": "uint256",
          "name": "",
          "type": "uint256"
        }
      ],
      "stateMutability": "view",
      "type": "function"
    },
    {
      "inputs": [
        {
          "internalType": "address",
          "name": "spender",
          "type": "address"
        },
        {
          "internalType": "uint256",
          "name": "amount",
          "type": "uint256"
        }
      ],
      "name": "approve",
      "outputs": [
        {
          "internalType": "bool",
          "name": "",
          "type": "bool"
        }
      ],
      "stateMutability": "nonpayable",
      "type": "function"
    },
    {
      "inputs": [
        {
          "internalType": "address",
          "name": "account",
          "type": "address"
        }
      ],
      "name": "balanceOf",
      "outputs": [
        {
          "internalType": "uint256",
          "name": "",
          "type": "uint256"
        }
      ],
      "stateMutability": "view",
      "type": "function"
    },
    {
      "inputs": [],
      "name": "comptroller",
      "outputs": [
        {
          "internalType": "address",
          "name": "",
          "type": "address"
        }
      ],
      "stateMutability": "view",
      "type": "function"
    },
    {
      "inputs": [],
      "name": "decimals",
      "outputs": [
        {
          "internalType": "uint8",
          "name": "",
          "type": "uint8"
        }
      ],
      "stateMutability": "view",
      "type": "function"
    },
    {
      "inputs": [
        {
          "internalType": "address",
          "name": "spender",
          "type": "address"
        },
        {
          "internalType": "uint256",
          "name": "subtractedValue",
          "type": "uint256"
        }
      ],
      "name": "decreaseAllowance",
      "outputs": [
        {
          "internalType": "bool",
          "name": "",
          "type": "bool"
        }
      ],
      "stateMutability": "nonpayable",
      "type": "function"
    },
    {
      "inputs": [],
      "name": "exchangeRateStored",
      "outputs": [
        {
          "internalType": "uint256",
          "name": "",
          "type": "uint256"
        }
      ],
      "stateMutability": "view",
      "type": "function"
    },
    {
      "inputs": [
        {
          "internalType": "address",
          "name": "spender",
          "type": "address"
        },
        {
          "internalType": "uint256",
          "name": "addedValue",
          "type": "uint256"
        }
      ],
      "name": "increaseAllowance",
      "outputs": [
        {
          "internalType": "bool",
          "name": "",
          "type": "bool"
        }
      ],
      "stateMutability": "nonpayable",
      "type": "function"
    },
    {
      "inputs": [
        {
          "internalType": "uint256",
          "name": "mintAmount",
          "type": "uint256"
        }
      ],
      "name": "mint",
      "outputs": [
        {
          "internalType": "uint256",
          "name": "",
          "type": "uint256"
        }
      ],
      "stateMutability": "nonpayable",
      "type": "function"
    },
    {
      "inputs": [],
      "name": "name",
      "outputs": [
        {
          "internalType": "string",
          "name": "",
          "type": "string"
        }
      ],
      "stateMutability": "view",
      "type": "function"
    },
    {
      "inputs": [
        {
          "internalType": "uint256",
          "name": "redeemAmount",
          "type": "uint256"
        }
      ],
      "name": "redeem",
      "outputs": [
        {
          "internalType": "uint256",
          "name": "",
          "type": "uint256"
        }
      ],
      "stateMutability": "nonpayable",
      "type": "function"
    },
    {
      "inputs": [
        {
          "internalType": "uint256",
          "name": "redeemAmount",
          "type": "uint256"
        }
      ],
      "name": "redeemUnderlying",
      "outputs": [
        {
          "internalType": "uint256",
          "name": "",
          "type": "uint256"
        }
      ],
      "stateMutability": "nonpayable",
      "type": "function"
    },
    {
      "inputs": [
        {
          "internalType": "uint256",
          "name": "exchangeRate",
          "type": "uint256"
        }
      ],
      "name": "setExchangeRate",
      "outputs": [],
      "stateMutability": "nonpayable",
      "type": "function"
    },
    {
      "inputs": [],
      "name": "symbol",
      "outputs": [
        {
          "internalType": "string",
          "name": "",
          "type": "string"
        }
      ],
      "stateMutability": "view",
      "type": "function"
    },
    {
      "inputs": [],
      "name": "totalSupply",
      "outputs": [
        {
          "internalType": "uint256",
          "name": "",
          "type": "uint256"
        }
      ],
      "stateMutability": "view",
      "type": "function"
    },
    {
      "inputs": [
        {
          "internalType": "address",
          "name": "to",
          "type": "address"
        },
        {
          "internalType": "uint256",
          "name": "amount",
          "type": "uint256"
        }
      ],
      "name": "transfer",
      "outputs": [
        {
          "internalType": "bool",
          "name": "",
          "type": "bool"
        }
      ],
      "stateMutability": "nonpayable",
      "type": "function"
    },
    {
      "inputs": [
        {
          "internalType": "address",
          "name": "from",
          "type": "address"
        },
        {
          "internalType": "address",
          "name": "to",
          "type": "address"
        },
        {
          "internalType": "uint256",
          "name": "amount",
          "type": "uint256"
        }
      ],
      "name": "transferFrom",
      "outputs": [
        {
          "internalType": "bool",
          "name": "",
          "type": "bool"
        }
      ],
      "stateMutability": "nonpayable",
      "type": "function"
    }
  ],
  "bytecode": "0x60806040523480156200001157600080fd5b506040516200157438038062001574833981016040819052620000349162000192565b6040805180820182526004808252636344616960e01b6020808401828152855180870190965292855284015281519192916200007391600391620000cf565b50805162000089906004906020840190620000cf565b5050600580546001600160a01b039586166001600160a01b0319918216179091556006805494861694821694909417909355506008805491909316911617905562000218565b828054620000dd90620001db565b90600052602060002090601f0160209004810192826200010157600085556200014c565b82601f106200011c57805160ff19168380011785556200014c565b828001600101855582156200014c579182015b828111156200014c5782518255916020019190600101906200012f565b506200015a9291506200015e565b5090565b5b808211156200015a57600081556001016200015f565b80516001600160a01b03811681146200018d57600080fd5b919050565b600080600060608486031215620001a7578283fd5b620001b28462000175565b9250620001c26020850162000175565b9150620001d26040850162000175565b90509250925092565b600181811c90821680620001f057607f821691505b602082108114156200021257634e487b7160e01b600052602260045260246000fd5b50919050565b61134c80620002286000396000f3fe608060405234801561001057600080fd5b50600436106101165760003560e01c8063852a12e3116100a2578063a6afed9511610071578063a6afed9514610230578063a9059cbb14610237578063db006a751461024a578063db068e0e1461025d578063dd62ed3e1461027257600080fd5b8063852a12e3146101ef57806395d89b4114610202578063a0712d681461020a578063a457c2d71461021d57600080fd5b806323b872dd116100e957806323b872dd14610176578063313ce5671461018957806339509351146101985780635fe3b567146101ab57806370a08231146101c657600080fd5b806306fdde031461011b578063095ea7b31461013957806318160ddd1461015c578063182df0f51461016e575b600080fd5b610123610285565b6040516101309190611204565b60405180910390f35b61014c61014736600461118b565b610317565b6040519015158152602001610130565b6002545b604051908152602001610130565b600754610160565b61014c610184366004611150565b61032f565b60405160128152602001610130565b61014c6101a636600461118b565b610353565b6008546040516001600160a01b039091168152602001610130565b6101606101d4366004611104565b6001600160a01b031660009081526020819052604090205490565b6101606101fd3660046111d4565b610375565b61012361059b565b6101606102183660046111d4565b6105aa565b61014c61022b36600461118b565b6107e2565b6000610160565b61014c61024536600461118b565b61085d565b6101606102583660046111d4565b61086b565b61027061026b3660046111d4565b610a25565b005b61016061028036600461111e565b610a8f565b606060038054610294906112c5565b80601f01602080910402602001604051908101604052809291908181526020018280546102c0906112c5565b801561030d5780601f106102e25761010080835404028352916020019161030d565b820191906000526020600020905b8154815290600101906020018083116102f057829003601f168201915b5050505050905090565b600033610325818585610aba565b5060019392505050565b60003361033d858285610bdf565b610348858585610c59565b506001949350505050565b6000336103258185856103668383610a8f565b6103709190611257565b610aba565b60008061038a8361038560075490565b610e27565b336000908152602081905260409020549091508111156104035760405162461bcd60e51b815260206004820152602960248201527f634461692072656465656d556e6465726c79696e673a206e6f7420656e6f7567604482015268682062616c616e636560b81b60648201526084015b60405180910390fd5b61040d3382610e47565b6005546040516370a0823160e01b81523060048201526000916001600160a01b0316906370a082319060240160206040518083038186803b15801561045157600080fd5b505afa158015610465573d6000803e3d6000fd5b505050506040513d601f19601f8201168201806040525081019061048991906111ec565b90508381101561050e576005546001600160a01b03166340c10f19306104af84886112ae565b6040516001600160e01b031960e085901b1681526001600160a01b0390921660048301526024820152604401600060405180830381600087803b1580156104f557600080fd5b505af1158015610509573d6000803e3d6000fd5b505050505b60055460405163a9059cbb60e01b8152336004820152602481018690526001600160a01b039091169063a9059cbb906044015b602060405180830381600087803b15801561055b57600080fd5b505af115801561056f573d6000803e3d6000fd5b505050506040513d601f19601f8201168201806040525081019061059391906111b4565b505050919050565b606060048054610294906112c5565b600554604051636eb1769f60e11b815233600482015230602482015260009183916001600160a01b039091169063dd62ed3e9060440160206040518083038186803b1580156105f857600080fd5b505afa15801561060c573d6000803e3d6000fd5b505050506040513d601f19601f8201168201806040525081019061063091906111ec565b101561067e5760405162461bcd60e51b815260206004820152601f60248201527f63446169206d696e743a206e6f7420656e6f75676820616c6c6f77616e63650060448201526064016103fa565b6005546040516323b872dd60e01b8152336004820152306024820152604481018490526001600160a01b03909116906323b872dd90606401602060405180830381600087803b1580156106d057600080fd5b505af11580156106e4573d6000803e3d6000fd5b505050506040513d601f19601f8201168201806040525081019061070891906111b4565b6107545760405162461bcd60e51b815260206004820152601e60248201527f63446169206d696e743a20646169207472616e73666572206661696c6564000060448201526064016103fa565b60006107638361038560075490565b905061076f3382610f8d565b6006546040516340c10f1960e01b8152336004820152670de0b6b3a764000060248201819052916001600160a01b0316906340c10f1990604401600060405180830381600087803b1580156107c357600080fd5b505af11580156107d7573d6000803e3d6000fd5b505050505050919050565b600033816107f08286610a8f565b9050838110156108505760405162461bcd60e51b815260206004820152602560248201527f45524332303a2064656372656173656420616c6c6f77616e63652062656c6f77604482015264207a65726f60d81b60648201526084016103fa565b6103488286868403610aba565b600033610325818585610c59565b336000908152602081905260408120548211156108ca5760405162461bcd60e51b815260206004820152601f60248201527f634461692072656465656d3a206e6f7420656e6f7567682062616c616e63650060448201526064016103fa565b6108d43383610e47565b60006108e86108e260075490565b8461106c565b6005546040516370a0823160e01b81523060048201529192506000916001600160a01b03909116906370a082319060240160206040518083038186803b15801561093157600080fd5b505afa158015610945573d6000803e3d6000fd5b505050506040513d601f19601f8201168201806040525081019061096991906111ec565b9050818110156109ee576005546001600160a01b03166340c10f193061098f84866112ae565b6040516001600160e01b031960e085901b1681526001600160a01b0390921660048301526024820152604401600060405180830381600087803b1580156109d557600080fd5b505af11580156109e9573d6000803e3d6000fd5b505050505b60055460405163a9059cbb60e01b8152336004820152602481018490526001600160a01b039091169063a9059cbb90604401610541565b600754811015610a8a5760405162461bcd60e51b815260206004820152602a60248201527f54657374434461693a206e65772065786368616e67652072617465206d757374604482015269103132903630b933b2b960b11b60648201526084016103fa565b600755565b6001600160a01b03918216600090815260016020908152604080832093909416825291909152205490565b6001600160a01b038316610b1c5760405162461bcd60e51b8152602060048201526024808201527f45524332303a20617070726f76652066726f6d20746865207a65726f206164646044820152637265737360e01b60648201526084016103fa565b6001600160a01b038216610b7d5760405162461bcd60e51b815260206004820152602260248201527f45524332303a20617070726f766520746f20746865207a65726f206164647265604482015261737360f01b60648201526084016103fa565b6001600160a01b0383811660008181526001602090815260408083209487168084529482529182902085905590518481527f8c5be1e5ebec7d5bd14f71427d1e84f3dd0314c0f7b2291e5b200ac8c7c3b92591015b60405180910390a3505050565b6000610beb8484610a8f565b90506000198114610c535781811015610c465760405162461bcd60e51b815260206004820152601d60248201527f45524332303a20696e73756666696369656e7420616c6c6f77616e636500000060448201526064016103fa565b610c538484848403610aba565b50505050565b6001600160a01b038316610cbd5760405162461bcd60e51b815260206004820152602560248201527f45524332303a207472616e736665722066726f6d20746865207a65726f206164604482015264647265737360d81b60648201526084016103fa565b6001600160a01b038216610d1f5760405162461bcd60e51b815260206004820152602360248201527f45524332303a207472616e7366657220746f20746865207a65726f206164647260448201526265737360e81b60648201526084016103fa565b6001600160a01b03831660009081526020819052604090205481811015610d975760405162461bcd60e51b815260206004820152602660248201527f45524332303a207472616e7366657220616d6f756e7420657863656564732062604482015265616c616e636560d01b60648201526084016103fa565b6001600160a01b03808516600090815260208190526040808220858503905591851681529081208054849290610dce908490611257565b92505081905550826001600160a01b0316846001600160a01b03167fddf252ad1be2c89b69c2b068fc378daa952ba7f163c4a11628f55a4df523b3ef84604051610e1a91815260200190565b60405180910390a3610c53565b600080610e348484611079565b9050610e3f8161109a565b949350505050565b6001600160a01b038216610ea75760405162461bcd60e51b815260206004820152602160248201527f45524332303a206275726e2066726f6d20746865207a65726f206164647265736044820152607360f81b60648201526084016103fa565b6001600160a01b03821660009081526020819052604090205481811015610f1b5760405162461bcd60e51b815260206004820152602260248201527f45524332303a206275726e20616d6f756e7420657863656564732062616c616e604482015261636560f01b60648201526084016103fa565b6001600160a01b0383166000908152602081905260408120838303905560028054849290610f4a9084906112ae565b90915550506040518281526000906001600160a01b038516907fddf252ad1be2c89b69c2b068fc378daa952ba7f163c4a11628f55a4df523b3ef90602001610bd2565b6001600160a01b038216610fe35760405162461bcd60e51b815260206004820152601f60248201527f45524332303a206d696e7420746f20746865207a65726f20616464726573730060448201526064016103fa565b8060026000828254610ff59190611257565b90915550506001600160a01b03821660009081526020819052604081208054839290611022908490611257565b90915550506040518181526001600160a01b038316906000907fddf252ad1be2c89b69c2b068fc378daa952ba7f163c4a11628f55a4df523b3ef9060200160405180910390a35050565b600080610e3484846110b4565b60008061108e84670de0b6b3a764000061128f565b9050610e3f81846110c7565b60006110ae670de0b6b3a76400008361126f565b92915050565b60006110c0828461128f565b9392505050565b6000806110dc84670de0b6b3a764000061128f565b9050610e3f838261126f565b80356001600160a01b03811681146110ff57600080fd5b919050565b600060208284031215611115578081fd5b6110c0826110e8565b60008060408385031215611130578081fd5b611139836110e8565b9150611147602084016110e8565b90509250929050565b600080600060608486031215611164578081fd5b61116d846110e8565b925061117b602085016110e8565b9150604084013590509250925092565b6000806040838503121561119d578182fd5b6111a6836110e8565b946020939093013593505050565b6000602082840312156111c5578081fd5b815180151581146110c0578182fd5b6000602082840312156111e5578081fd5b5035919050565b6000602082840312156111fd578081fd5b5051919050565b6000602080835283518082850152825b8181101561123057858101830151858201604001528201611214565b818111156112415783604083870101525b50601f01601f1916929092016040019392505050565b6000821982111561126a5761126a611300565b500190565b60008261128a57634e487b7160e01b81526012600452602481fd5b500490565b60008160001904831182151516156112a9576112a9611300565b500290565b6000828210156112c0576112c0611300565b500390565b600181811c908216806112d957607f821691505b602082108114156112fa57634e487b7160e01b600052602260045260246000fd5b50919050565b634e487b7160e01b600052601160045260246000fdfea26469706673582212203a9d6398d0d555c47e6e9373db329060e1e1343312343bc9d77c34d30a1ab0ce64736f6c63430008040033",
  "linkReferences": {},
  "deployedLinkReferences": {}
}