{
  "_format": "hh-sol-artifact-1",
  "contractName": "DSPauseProxy",
  "sourceName": "contracts/timelock/DSPauseProxy.sol",
  "abi": [
    {
      "inputs": [],
      "stateMutability": "nonpayable",
      "type": "constructor"
    },
    {
      "inputs": [],
      "name": "_owner",
      "outputs": [
        {
          "internalType": "address",
          "name": "",
          "type": "address"
        }
      ],
      "stateMutability": "view",
      "type": "function"
    },
    {
      "inputs": [
        {
          "internalType": "address",
          "name": "usr",
          "type": "address"
        },
        {
          "internalType": "bytes",
          "name": "fax",
          "type": "bytes"
        }
      ],
      "name": "exec",
      "outputs": [
        {
          "internalType": "bytes",
          "name": "out",
          "type": "bytes"
        }
      ],
      "stateMutability": "nonpayable",
      "type": "function"
    }
  ],
  "bytecode": "0x608060405234801561001057600080fd5b50600080546001600160a01b03191633179055610335806100326000396000f3fe608060405234801561001057600080fd5b50600436106100365760003560e01c8063b2bdfa7b1461003b578063be6002c21461006b575b600080fd5b60005461004e906001600160a01b031681565b6040516001600160a01b0390911681526020015b60405180910390f35b61007e6100793660046101a0565b61008b565b6040516100629190610286565b6000546060906001600160a01b031633146100ed5760405162461bcd60e51b815260206004820152601b60248201527f64732d70617573652d70726f78792d756e617574686f72697a6564000000000060448201526064015b60405180910390fd5b6000836001600160a01b031683604051610107919061026a565b600060405180830381855af49150503d8060008114610142576040519150601f19603f3d011682016040523d82523d6000602084013e610147565b606091505b5092509050806101995760405162461bcd60e51b815260206004820152601b60248201527f64732d70617573652d64656c656761746563616c6c2d6572726f72000000000060448201526064016100e4565b5092915050565b600080604083850312156101b2578182fd5b82356001600160a01b03811681146101c8578283fd5b9150602083013567ffffffffffffffff808211156101e4578283fd5b818501915085601f8301126101f7578283fd5b813581811115610209576102096102e9565b604051601f8201601f19908116603f01168101908382118183101715610231576102316102e9565b81604052828152886020848701011115610249578586fd5b82602086016020830137856020848301015280955050505050509250929050565b6000825161027c8184602087016102b9565b9190910192915050565b60208152600082518060208401526102a58160408501602087016102b9565b601f01601f19169190910160400192915050565b60005b838110156102d45781810151838201526020016102bc565b838111156102e3576000848401525b50505050565b634e487b7160e01b600052604160045260246000fdfea26469706673582212208ccf87187b736aa8dea7f1196ddc22ade322ba466f7882e5e5de3b69be223c1e64736f6c63430008040033",
  "linkReferences": {},
  "deployedLinkReferences": {}
}