{
  "_format": "hh-sol-artifact-1",
  "contractName": "ProxyAdmin",
  "sourceName": "contracts/proxy/ProxyAdmin.sol",
  "abi": [
    {
      "inputs": [
        {
          "internalType": "address",
          "name": "owner",
          "type": "address"
        }
      ],
      "stateMutability": "nonpayable",
      "type": "constructor"
    },
    {
      "anonymous": false,
      "inputs": [
        {
          "indexed": false,
          "internalType": "address",
          "name": "oldOwner",
          "type": "address"
        },
        {
          "indexed": false,
          "internalType": "address",
          "name": "newOwner",
          "type": "address"
        }
      ],
      "name": "OwnershipChanged",
      "type": "event"
    },
    {
      "inputs": [
        {
          "internalType": "contract AdminUpgradeabilityProxy",
          "name": "proxy",
          "type": "address"
        },
        {
          "internalType": "address",
          "name": "newAdmin",
          "type": "address"
        }
      ],
      "name": "changeProxyAdmin",
      "outputs": [],
      "stateMutability": "nonpayable",
      "type": "function"
    },
    {
      "inputs": [],
      "name": "getOwner",
      "outputs": [
        {
          "internalType": "address",
          "name": "",
          "type": "address"
        }
      ],
      "stateMutability": "view",
      "type": "function"
    },
    {
      "inputs": [
        {
          "internalType": "contract AdminUpgradeabilityProxy",
          "name": "proxy",
          "type": "address"
        }
      ],
      "name": "getProxyAdmin",
      "outputs": [
        {
          "internalType": "address",
          "name": "",
          "type": "address"
        }
      ],
      "stateMutability": "view",
      "type": "function"
    },
    {
      "inputs": [
        {
          "internalType": "contract AdminUpgradeabilityProxy",
          "name": "proxy",
          "type": "address"
        }
      ],
      "name": "getProxyImplementation",
      "outputs": [
        {
          "internalType": "address",
          "name": "",
          "type": "address"
        }
      ],
      "stateMutability": "view",
      "type": "function"
    },
    {
      "inputs": [
        {
          "internalType": "address",
          "name": "newOwner",
          "type": "address"
        }
      ],
      "name": "setOwner",
      "outputs": [],
      "stateMutability": "nonpayable",
      "type": "function"
    },
    {
      "inputs": [
        {
          "internalType": "contract AdminUpgradeabilityProxy",
          "name": "proxy",
          "type": "address"
        },
        {
          "internalType": "address",
          "name": "implementation",
          "type": "address"
        }
      ],
      "name": "upgrade",
      "outputs": [],
      "stateMutability": "nonpayable",
      "type": "function"
    },
    {
      "inputs": [
        {
          "internalType": "contract AdminUpgradeabilityProxy",
          "name": "proxy",
          "type": "address"
        },
        {
          "internalType": "address",
          "name": "implementation",
          "type": "address"
        },
        {
          "internalType": "bytes",
          "name": "data",
          "type": "bytes"
        }
      ],
      "name": "upgradeAndCall",
      "outputs": [],
      "stateMutability": "payable",
      "type": "function"
    }
  ],
  "bytecode": "0x608060405234801561001057600080fd5b506040516107c23803806107c283398101604081905261002f916100e5565b6100388161003e565b50610113565b6001600160a01b0381166100845760405162461bcd60e51b81526020600482015260096024820152683d32b93796b0b2323960b91b604482015260640160405180910390fd5b600080546001600160a01b038381166001600160a01b031983168117909355604080519190921680825260208201939093527f0384899bd253d83b23daa4d29aaa2efe0563d1132b43101e9ad667235aeb951b910160405180910390a15050565b6000602082840312156100f6578081fd5b81516001600160a01b038116811461010c578182fd5b9392505050565b6106a0806101226000396000f3fe6080604052600436106100705760003560e01c8063893d20e81161004e578063893d20e8146100f35780639623609d1461011157806399a88ec414610124578063f3b7dead1461014457600080fd5b806313af403514610075578063204e1c7a146100975780637eff275e146100d3575b600080fd5b34801561008157600080fd5b50610095610090366004610470565b610164565b005b3480156100a357600080fd5b506100b76100b2366004610470565b6101a3565b6040516001600160a01b03909116815260200160405180910390f35b3480156100df57600080fd5b506100956100ee3660046104af565b610234565b3480156100ff57600080fd5b506000546001600160a01b03166100b7565b61009561011f3660046104e7565b6102be565b34801561013057600080fd5b5061009561013f3660046104af565b61034f565b34801561015057600080fd5b506100b761015f366004610470565b6103a7565b6000546001600160a01b031633146101975760405162461bcd60e51b815260040161018e9061061b565b60405180910390fd5b6101a0816103cd565b50565b6000806000836001600160a01b03166040516101c990635c60da1b60e01b815260040190565b600060405180830381855afa9150503d8060008114610204576040519150601f19603f3d011682016040523d82523d6000602084013e610209565b606091505b50915091508161021857600080fd5b8080602001905181019061022c9190610493565b949350505050565b6000546001600160a01b0316331461025e5760405162461bcd60e51b815260040161018e9061061b565b6040516308f2839760e41b81526001600160a01b038281166004830152831690638f283970906024015b600060405180830381600087803b1580156102a257600080fd5b505af11580156102b6573d6000803e3d6000fd5b505050505050565b6000546001600160a01b031633146102e85760405162461bcd60e51b815260040161018e9061061b565b60405163278f794360e11b81526001600160a01b03841690634f1ef28690349061031890869086906004016105b8565b6000604051808303818588803b15801561033157600080fd5b505af1158015610345573d6000803e3d6000fd5b5050505050505050565b6000546001600160a01b031633146103795760405162461bcd60e51b815260040161018e9061061b565b604051631b2ce7f360e11b81526001600160a01b038281166004830152831690633659cfe690602401610288565b6000806000836001600160a01b03166040516101c9906303e1469160e61b815260040190565b6001600160a01b03811661040f5760405162461bcd60e51b81526020600482015260096024820152683d32b93796b0b2323960b91b604482015260640161018e565b600080546001600160a01b038381166001600160a01b031983168117909355604080519190921680825260208201939093527f0384899bd253d83b23daa4d29aaa2efe0563d1132b43101e9ad667235aeb951b910160405180910390a15050565b600060208284031215610481578081fd5b813561048c81610655565b9392505050565b6000602082840312156104a4578081fd5b815161048c81610655565b600080604083850312156104c1578081fd5b82356104cc81610655565b915060208301356104dc81610655565b809150509250929050565b6000806000606084860312156104fb578081fd5b833561050681610655565b9250602084013561051681610655565b9150604084013567ffffffffffffffff80821115610532578283fd5b818601915086601f830112610545578283fd5b8135818111156105575761055761063f565b604051601f8201601f19908116603f0116810190838211818310171561057f5761057f61063f565b81604052828152896020848701011115610597578586fd5b82602086016020830137856020848301015280955050505050509250925092565b60018060a01b0383168152600060206040818401528351806040850152825b818110156105f3578581018301518582016060015282016105d7565b818111156106045783606083870101525b50601f01601f191692909201606001949350505050565b6020808252600a908201526937b7363c96b7bbb732b960b11b604082015260600190565b634e487b7160e01b600052604160045260246000fd5b6001600160a01b03811681146101a057600080fdfea264697066735822122061d03f7ea081a8be1607436590f68fbe60440ab4a9500c7d7a3e4144bec5eb4464736f6c63430008040033",
  "linkReferences": {},
  "deployedLinkReferences": {}
}