{
  "_format": "hh-sol-artifact-1",
  "contractName": "TestComptroller",
  "sourceName": "contracts/test/TestComptroller.sol",
  "abi": [
    {
      "inputs": [
        {
          "internalType": "address",
          "name": "holder",
          "type": "address"
        }
      ],
      "name": "claimComp",
      "outputs": [],
      "stateMutability": "nonpayable",
      "type": "function"
    }
  ],
  "bytecode": "0x6080604052348015600f57600080fd5b50609f8061001e6000396000f3fe6080604052348015600f57600080fd5b506004361060285760003560e01c8063e9af029214602d575b600080fd5b603b6038366004603d565b50565b005b600060208284031215604d578081fd5b81356001600160a01b03811681146062578182fd5b939250505056fea26469706673582212209781ed866515bc1557533177f74763a3c6e17141f69ffd77ee708c8dcc55374564736f6c63430008040033",
  "linkReferences": {},
  "deployedLinkReferences": {}
}