{
  "_format": "hh-sol-artifact-1",
  "contractName": "Ownable",
  "sourceName": "contracts/util/Ownable.sol",
  "abi": [
    {
      "anonymous": false,
      "inputs": [
        {
          "indexed": false,
          "internalType": "address",
          "name": "oldOwner",
          "type": "address"
        },
        {
          "indexed": false,
          "internalType": "address",
          "name": "newOwner",
          "type": "address"
        }
      ],
      "name": "OwnershipChanged",
      "type": "event"
    },
    {
      "inputs": [],
      "name": "getOwner",
      "outputs": [
        {
          "internalType": "address",
          "name": "",
          "type": "address"
        }
      ],
      "stateMutability": "view",
      "type": "function"
    },
    {
      "inputs": [
        {
          "internalType": "address",
          "name": "newOwner",
          "type": "address"
        }
      ],
      "name": "setOwner",
      "outputs": [],
      "stateMutability": "nonpayable",
      "type": "function"
    }
  ],
  "bytecode": "0x608060405234801561001057600080fd5b506101ce806100206000396000f3fe608060405234801561001057600080fd5b50600436106100365760003560e01c806313af40351461003b578063893d20e814610050575b600080fd5b61004e61004936600461016a565b61006f565b005b600054604080516001600160a01b039092168252519081900360200190f35b6000546001600160a01b031633146100bb5760405162461bcd60e51b815260206004820152600a60248201526937b7363c96b7bbb732b960b11b60448201526064015b60405180910390fd5b6100c4816100c7565b50565b6001600160a01b0381166101095760405162461bcd60e51b81526020600482015260096024820152683d32b93796b0b2323960b91b60448201526064016100b2565b600080546001600160a01b038381166001600160a01b031983168117909355604080519190921680825260208201939093527f0384899bd253d83b23daa4d29aaa2efe0563d1132b43101e9ad667235aeb951b910160405180910390a15050565b60006020828403121561017b578081fd5b81356001600160a01b0381168114610191578182fd5b939250505056fea26469706673582212200f299aebfd618300efdfa7dfcdc305dd933627d5957623d343093dfea4df1af464736f6c63430008040033",
  "linkReferences": {},
  "deployedLinkReferences": {}
}