{
  "_format": "hh-sol-artifact-1",
  "contractName": "DSPause",
  "sourceName": "contracts/timelock/DSPause.sol",
  "abi": [
    {
      "inputs": [
        {
          "internalType": "uint256",
          "name": "delay",
          "type": "uint256"
        },
        {
          "internalType": "address",
          "name": "owner",
          "type": "address"
        }
      ],
      "stateMutability": "nonpayable",
      "type": "constructor"
    },
    {
      "inputs": [],
      "name": "_delay",
      "outputs": [
        {
          "internalType": "uint256",
          "name": "",
          "type": "uint256"
        }
      ],
      "stateMutability": "view",
      "type": "function"
    },
    {
      "inputs": [],
      "name": "_owner",
      "outputs": [
        {
          "internalType": "address",
          "name": "",
          "type": "address"
        }
      ],
      "stateMutability": "view",
      "type": "function"
    },
    {
      "inputs": [
        {
          "internalType": "bytes32",
          "name": "",
          "type": "bytes32"
        }
      ],
      "name": "_plans",
      "outputs": [
        {
          "internalType": "bool",
          "name": "",
          "type": "bool"
        }
      ],
      "stateMutability": "view",
      "type": "function"
    },
    {
      "inputs": [],
      "name": "_proxy",
      "outputs": [
        {
          "internalType": "contract DSPauseProxy",
          "name": "",
          "type": "address"
        }
      ],
      "stateMutability": "view",
      "type": "function"
    },
    {
      "inputs": [
        {
          "internalType": "address",
          "name": "usr",
          "type": "address"
        },
        {
          "internalType": "bytes32",
          "name": "tag",
          "type": "bytes32"
        },
        {
          "internalType": "bytes",
          "name": "fax",
          "type": "bytes"
        },
        {
          "internalType": "uint256",
          "name": "eta",
          "type": "uint256"
        }
      ],
      "name": "drop",
      "outputs": [],
      "stateMutability": "nonpayable",
      "type": "function"
    },
    {
      "inputs": [
        {
          "internalType": "address",
          "name": "usr",
          "type": "address"
        },
        {
          "internalType": "bytes32",
          "name": "tag",
          "type": "bytes32"
        },
        {
          "internalType": "bytes",
          "name": "fax",
          "type": "bytes"
        },
        {
          "internalType": "uint256",
          "name": "eta",
          "type": "uint256"
        }
      ],
      "name": "exec",
      "outputs": [
        {
          "internalType": "bytes",
          "name": "out",
          "type": "bytes"
        }
      ],
      "stateMutability": "nonpayable",
      "type": "function"
    },
    {
      "inputs": [
        {
          "internalType": "address",
          "name": "usr",
          "type": "address"
        },
        {
          "internalType": "bytes32",
          "name": "tag",
          "type": "bytes32"
        },
        {
          "internalType": "bytes",
          "name": "fax",
          "type": "bytes"
        },
        {
          "internalType": "uint256",
          "name": "eta",
          "type": "uint256"
        }
      ],
      "name": "plot",
      "outputs": [],
      "stateMutability": "nonpayable",
      "type": "function"
    },
    {
      "inputs": [
        {
          "internalType": "uint256",
          "name": "delay",
          "type": "uint256"
        }
      ],
      "name": "setDelay",
      "outputs": [],
      "stateMutability": "nonpayable",
      "type": "function"
    },
    {
      "inputs": [
        {
          "internalType": "address",
          "name": "owner",
          "type": "address"
        }
      ],
      "name": "setOwner",
      "outputs": [],
      "stateMutability": "nonpayable",
      "type": "function"
    },
    {
      "inputs": [
        {
          "internalType": "address",
          "name": "usr",
          "type": "address"
        }
      ],
      "name": "soul",
      "outputs": [
        {
          "internalType": "bytes32",
          "name": "tag",
          "type": "bytes32"
        }
      ],
      "stateMutability": "view",
      "type": "function"
    }
  ],
  "bytecode": "0x608060405234801561001057600080fd5b50604051610f35380380610f3583398101604081905261002f916100f8565b6001600160a01b03811661007a5760405162461bcd60e51b815260206004820152600e60248201526d696e76616c69642d706172616d7360901b604482015260640160405180910390fd5b6003829055600080546001600160a01b0319166001600160a01b0383161790556040516100a6906100eb565b604051809103906000f0801580156100c2573d6000803e3d6000fd5b50600280546001600160a01b0319166001600160a01b0392909216919091179055506101339050565b61036780610bce83390190565b6000806040838503121561010a578182fd5b825160208401519092506001600160a01b0381168114610128578182fd5b809150509250929050565b610a8c806101426000396000f3fe608060405234801561001057600080fd5b506004361061009e5760003560e01c8063958b640011610066578063958b64001461013a578063b2bdfa7b1461015a578063cc2effdc14610185578063e177246e14610198578063e8363743146101ab57600080fd5b806313af4035146100a3578063162c7de3146100b8578063168ccd67146100cb57806346d2fbbb146100f4578063548b0fab14610107575b600080fd5b6100b66100b136600461074b565b6101b4565b005b6100b66100c636600461078a565b610276565b6100de6100d936600461078a565b6102d7565b6040516100eb9190610939565b60405180910390f35b6100b661010236600461078a565b6105bf565b61012a610115366004610826565b60016020526000908152604090205460ff1681565b60405190151581526020016100eb565b61014c61014836600461074b565b3f90565b6040519081526020016100eb565b60005461016d906001600160a01b031681565b6040516001600160a01b0390911681526020016100eb565b60025461016d906001600160a01b031681565b6100b66101a6366004610826565b610655565b61014c60035481565b6002546001600160a01b0316331461020d5760405162461bcd60e51b8152602060048201526017602482015276191ccb5c185d5cd94b5d5b99195b185e59590b58d85b1b604a1b60448201526064015b60405180910390fd5b6001600160a01b0381166102545760405162461bcd60e51b815260206004820152600e60248201526d696e76616c69642d706172616d7360901b6044820152606401610204565b600080546001600160a01b0319166001600160a01b0392909216919091179055565b6000546001600160a01b031633146102a05760405162461bcd60e51b81526004016102049061094c565b6000600160006102b2878787876106ae565b81526020810191909152604001600020805460ff191691151591909117905550505050565b6000546060906001600160a01b031633146103045760405162461bcd60e51b81526004016102049061094c565b60016000610314878787876106ae565b815260208101919091526040016000205460ff166103745760405162461bcd60e51b815260206004820152601760248201527f64732d70617573652d756e706c6f747465642d706c616e0000000000000000006044820152606401610204565b83853f146103c45760405162461bcd60e51b815260206004820152601760248201527f64732d70617573652d77726f6e672d636f6465686173680000000000000000006044820152606401610204565b814210156104145760405162461bcd60e51b815260206004820152601760248201527f64732d70617573652d7072656d61747572652d657865630000000000000000006044820152606401610204565b600060016000610426888888886106ae565b815260208101919091526040908101600020805460ff1916921515929092179091556002549051635f30016160e11b81526001600160a01b039091169063be6002c2906104799088908790600401610915565b600060405180830381600087803b15801561049357600080fd5b505af11580156104a7573d6000803e3d6000fd5b505050506040513d6000823e601f3d908101601f191682016040526104cf919081019061083e565b9050306001600160a01b0316600260009054906101000a90046001600160a01b03166001600160a01b031663b2bdfa7b6040518163ffffffff1660e01b815260040160206040518083038186803b15801561052957600080fd5b505afa15801561053d573d6000803e3d6000fd5b505050506040513d601f19601f82011682018060405250810190610561919061076e565b6001600160a01b0316146105b75760405162461bcd60e51b815260206004820152601f60248201527f64732d70617573652d696c6c6567616c2d73746f726167652d6368616e6765006044820152606401610204565b949350505050565b6000546001600160a01b031633146105e95760405162461bcd60e51b81526004016102049061094c565b6105f5426003546106e7565b8110156106445760405162461bcd60e51b815260206004820152601c60248201527f64732d70617573652d64656c61792d6e6f742d726573706563746564000000006044820152606401610204565b60018060006102b2878787876106ae565b6002546001600160a01b031633146106a95760405162461bcd60e51b8152602060048201526017602482015276191ccb5c185d5cd94b5d5b99195b185e59590b58d85b1b604a1b6044820152606401610204565b600355565b6000848484846040516020016106c794939291906108dd565b604051602081830303815290604052805190602001209050949350505050565b60006106f382846109d4565b9050828110156107455760405162461bcd60e51b815260206004820152601a60248201527f64732d70617573652d6164646974696f6e2d6f766572666c6f770000000000006044820152606401610204565b92915050565b60006020828403121561075c578081fd5b813561076781610a3e565b9392505050565b60006020828403121561077f578081fd5b815161076781610a3e565b6000806000806080858703121561079f578283fd5b84356107aa81610a3e565b935060208501359250604085013567ffffffffffffffff8111156107cc578283fd5b8501601f810187136107dc578283fd5b80356107ef6107ea826109ac565b61097b565b818152886020838501011115610803578485fd5b816020840160208301379081016020019390935250929591945092606001359150565b600060208284031215610837578081fd5b5035919050565b60006020828403121561084f578081fd5b815167ffffffffffffffff811115610865578182fd5b8201601f81018413610875578182fd5b80516108836107ea826109ac565b818152856020838501011115610897578384fd5b6108a88260208301602086016109f8565b95945050505050565b600081518084526108c98160208601602086016109f8565b601f01601f19169290920160200192915050565b60018060a01b038516815283602082015260806040820152600061090460808301856108b1565b905082606083015295945050505050565b6001600160a01b03831681526040602082018190526000906105b7908301846108b1565b60208152600061076760208301846108b1565b602080825260159082015274191ccb5c185d5cd94b5d5b985d5d1a1bdc9a5e9959605a1b604082015260600190565b604051601f8201601f1916810167ffffffffffffffff811182821017156109a4576109a4610a28565b604052919050565b600067ffffffffffffffff8211156109c6576109c6610a28565b50601f01601f191660200190565b600082198211156109f357634e487b7160e01b81526011600452602481fd5b500190565b60005b83811015610a135781810151838201526020016109fb565b83811115610a22576000848401525b50505050565b634e487b7160e01b600052604160045260246000fd5b6001600160a01b0381168114610a5357600080fd5b5056fea264697066735822122016689e76df59c61a04ccfbbdc1a298de65fb8a052888b40688cd9cdf71b07aa864736f6c63430008040033608060405234801561001057600080fd5b50600080546001600160a01b03191633179055610335806100326000396000f3fe608060405234801561001057600080fd5b50600436106100365760003560e01c8063b2bdfa7b1461003b578063be6002c21461006b575b600080fd5b60005461004e906001600160a01b031681565b6040516001600160a01b0390911681526020015b60405180910390f35b61007e6100793660046101a0565b61008b565b6040516100629190610286565b6000546060906001600160a01b031633146100ed5760405162461bcd60e51b815260206004820152601b60248201527f64732d70617573652d70726f78792d756e617574686f72697a6564000000000060448201526064015b60405180910390fd5b6000836001600160a01b031683604051610107919061026a565b600060405180830381855af49150503d8060008114610142576040519150601f19603f3d011682016040523d82523d6000602084013e610147565b606091505b5092509050806101995760405162461bcd60e51b815260206004820152601b60248201527f64732d70617573652d64656c656761746563616c6c2d6572726f72000000000060448201526064016100e4565b5092915050565b600080604083850312156101b2578182fd5b82356001600160a01b03811681146101c8578283fd5b9150602083013567ffffffffffffffff808211156101e4578283fd5b818501915085601f8301126101f7578283fd5b813581811115610209576102096102e9565b604051601f8201601f19908116603f01168101908382118183101715610231576102316102e9565b81604052828152886020848701011115610249578586fd5b82602086016020830137856020848301015280955050505050509250929050565b6000825161027c8184602087016102b9565b9190910192915050565b60208152600082518060208401526102a58160408501602087016102b9565b601f01601f19169190910160400192915050565b60005b838110156102d45781810151838201526020016102bc565b838111156102e3576000848401525b50505050565b634e487b7160e01b600052604160045260246000fdfea26469706673582212208ccf87187b736aa8dea7f1196ddc22ade322ba466f7882e5e5de3b69be223c1e64736f6c63430008040033",
  "linkReferences": {},
  "deployedLinkReferences": {}
}