{
  "_format": "hh-sol-artifact-1",
  "contractName": "All41Exchange",
  "sourceName": "contracts/core/All41Exchange.sol",
  "abi": [
    {
      "anonymous": false,
      "inputs": [
        {
          "indexed": false,
          "internalType": "address",
          "name": "wallet",
          "type": "address"
        },
        {
          "indexed": false,
          "internalType": "uint256",
          "name": "dai",
          "type": "uint256"
        },
        {
          "indexed": false,
          "internalType": "uint256",
          "name": "cDai",
          "type": "uint256"
        },
        {
          "indexed": false,
          "internalType": "uint256",
          "name": "daiAmount",
          "type": "uint256"
        }
      ],
      "name": "DepositedState",
      "type": "event"
    },
    {
      "anonymous": false,
      "inputs": [
        {
          "indexed": false,
          "internalType": "address",
          "name": "oldOwner",
          "type": "address"
        },
        {
          "indexed": false,
          "internalType": "address",
          "name": "newOwner",
          "type": "address"
        }
      ],
      "name": "OwnershipChanged",
      "type": "event"
    },
    {
      "anonymous": false,
      "inputs": [
        {
          "indexed": false,
          "internalType": "address",
          "name": "wallet",
          "type": "address"
        },
        {
          "indexed": false,
          "internalType": "uint256",
          "name": "investmentToken",
          "type": "uint256"
        },
        {
          "indexed": false,
          "internalType": "uint256",
          "name": "daiRedeemed",
          "type": "uint256"
        }
      ],
      "name": "WalletAmountRedeemed",
      "type": "event"
    },
    {
      "inputs": [
        {
          "internalType": "address",
          "name": "wallet",
          "type": "address"
        },
        {
          "internalType": "uint256",
          "name": "daiAmount",
          "type": "uint256"
        }
      ],
      "name": "depositToWalletPool",
      "outputs": [],
      "stateMutability": "nonpayable",
      "type": "function"
    },
    {
      "inputs": [
        {
          "internalType": "address",
          "name": "wallet",
          "type": "address"
        }
      ],
      "name": "getAmountInvested",
      "outputs": [
        {
          "internalType": "uint256",
          "name": "",
          "type": "uint256"
        }
      ],
      "stateMutability": "view",
      "type": "function"
    },
    {
      "inputs": [
        {
          "internalType": "address",
          "name": "wallet",
          "type": "address"
        }
      ],
      "name": "getAmountInvestedWithInterest",
      "outputs": [
        {
          "internalType": "uint256",
          "name": "",
          "type": "uint256"
        }
      ],
      "stateMutability": "view",
      "type": "function"
    },
    {
      "inputs": [
        {
          "internalType": "address",
          "name": "wallet",
          "type": "address"
        }
      ],
      "name": "getInterestPayable",
      "outputs": [
        {
          "internalType": "uint256",
          "name": "",
          "type": "uint256"
        }
      ],
      "stateMutability": "view",
      "type": "function"
    },
    {
      "inputs": [],
      "name": "getOwner",
      "outputs": [
        {
          "internalType": "address",
          "name": "",
          "type": "address"
        }
      ],
      "stateMutability": "view",
      "type": "function"
    },
    {
      "inputs": [
        {
          "internalType": "address",
          "name": "wallet",
          "type": "address"
        }
      ],
      "name": "getcDaiOwned",
      "outputs": [
        {
          "internalType": "uint256",
          "name": "",
          "type": "uint256"
        }
      ],
      "stateMutability": "view",
      "type": "function"
    },
    {
      "inputs": [
        {
          "internalType": "address",
          "name": "owner",
          "type": "address"
        },
        {
          "internalType": "address",
          "name": "interestManager",
          "type": "address"
        },
        {
          "internalType": "address",
          "name": "dai",
          "type": "address"
        }
      ],
      "name": "initialize",
      "outputs": [],
      "stateMutability": "nonpayable",
      "type": "function"
    },
    {
      "inputs": [
        {
          "internalType": "address",
          "name": "newOwner",
          "type": "address"
        }
      ],
      "name": "setOwner",
      "outputs": [],
      "stateMutability": "nonpayable",
      "type": "function"
    },
    {
      "inputs": [
        {
          "internalType": "address",
          "name": "wallet",
          "type": "address"
        },
        {
          "internalType": "uint256",
          "name": "daiAmount",
          "type": "uint256"
        }
      ],
      "name": "withdrawAmount",
      "outputs": [],
      "stateMutability": "nonpayable",
      "type": "function"
    },
    {
      "inputs": [
        {
          "internalType": "address",
          "name": "wallet",
          "type": "address"
        }
      ],
      "name": "withdrawWalletInterest",
      "outputs": [],
      "stateMutability": "nonpayable",
      "type": "function"
    }
  ],
  "bytecode": "0x608060405234801561001057600080fd5b50610dea806100206000396000f3fe608060405234801561001057600080fd5b506004361061009e5760003560e01c8063893d20e811610066578063893d20e81461012d5780638d63d7d614610148578063c0c53b8b14610174578063d487f52214610187578063dd3cd37e1461019a57600080fd5b806313af4035146100a35780633a2ddae1146100b8578063421ce88e146100f4578063577aca5914610107578063736fe5651461011a575b600080fd5b6100b66100b1366004610cb2565b6101ad565b005b6100e16100c6366004610cb2565b6001600160a01b031660009081526034602052604090205490565b6040519081526020015b60405180910390f35b6100b6610102366004610cb2565b610205565b6100e1610115366004610cb2565b6103cb565b6100b6610128366004610d0e565b610476565b6033546040516001600160a01b0390911681526020016100eb565b6100e1610156366004610cb2565b6001600160a01b031660009081526034602052604090206001015490565b6100b6610182366004610ccc565b610705565b6100b6610195366004610d0e565b61083a565b6100e16101a8366004610cb2565b610bb7565b6033546001600160a01b031633146101f95760405162461bcd60e51b815260206004820152600a60248201526937b7363c96b7bbb732b960b11b60448201526064015b60405180910390fd5b61020281610bf3565b50565b6001600160a01b038116331461024e5760405162461bcd60e51b815260206004820152600e60248201526d1b9bdd0b585d5d1a1bdc9a5e995960921b60448201526064016101f0565b603560009054906101000a90046001600160a01b03166001600160a01b031663a6afed956040518163ffffffff1660e01b8152600401600060405180830381600087803b15801561029e57600080fd5b505af11580156102b2573d6000803e3d6000fd5b5050505060006102c1826103cb565b9050806102cc575050565b6001600160a01b038281166000908152603460205260409081902060355491516301e9a69560e41b81523360048201526024810185905290929190911690631e9a695090604401602060405180830381600087803b15801561032d57600080fd5b505af1158015610341573d6000803e3d6000fd5b505050506040513d601f19601f820116820180604052508101906103659190610d57565b81600101546103749190610d87565b60018201819055604080516001600160a01b0386168152602081019290925281018390527feb5866fee924cad8274ef4f3f2fa3d6b4645a190e5d4edb4cf8e5e521a359c06906060015b60405180910390a1505050565b6001600160a01b03818116600090815260346020526040808220805460355460018301549351630d84d5e960e41b8152600481019490945293949193909291169063d84d5e909060240160206040518083038186803b15801561042d57600080fd5b505afa158015610441573d6000803e3d6000fd5b505050506040513d601f19601f820116820180604052508101906104659190610d57565b61046f9190610d87565b9392505050565b6001600160a01b03821633146104bf5760405162461bcd60e51b815260206004820152600e60248201526d1b9bdd0b585d5d1a1bdc9a5e995960921b60448201526064016101f0565b603560009054906101000a90046001600160a01b03166001600160a01b031663a6afed956040518163ffffffff1660e01b8152600401600060405180830381600087803b15801561050f57600080fd5b505af1158015610523573d6000803e3d6000fd5b50505050600061053283610bb7565b90506000610555846001600160a01b031660009081526034602052604090205490565b90506000610562856103cb565b905082610570575050505050565b600061057c8585610d87565b10156105d95760405162461bcd60e51b815260206004820152602660248201527f646169416d6f756e742067726561746572207468616e20746f74616c52656465604482015265656d61626c6560d01b60648201526084016101f0565b6001600160a01b038581166000908152603460205260409081902060355491516301e9a69560e41b81523360048201526024810188905290929190911690631e9a695090604401602060405180830381600087803b15801561063a57600080fd5b505af115801561064e573d6000803e3d6000fd5b505050506040513d601f19601f820116820180604052508101906106729190610d57565b81600101546106819190610d87565b6001820155818511156106ae57600061069a8387610d87565b82549091506106aa908290610d87565b8255505b6001810154604080516001600160a01b0389168152602081019290925281018690527feb5866fee924cad8274ef4f3f2fa3d6b4645a190e5d4edb4cf8e5e521a359c069060600160405180910390a1505050505050565b600054610100900460ff168061071a5750303b155b80610728575060005460ff16155b61076a5760405162461bcd60e51b8152602060048201526013602482015272185b1c9958591e4b5a5b9a5d1a585b1a5e9959606a1b60448201526064016101f0565b600054610100900460ff1615801561078c576000805461ffff19166101011790555b6001600160a01b038316158015906107ac57506001600160a01b03821615155b6107e95760405162461bcd60e51b815260206004820152600e60248201526d696e76616c69642d706172616d7360901b60448201526064016101f0565b6107f284610bf3565b603580546001600160a01b038086166001600160a01b03199283161790925560368054928516929091169190911790558015610834576000805461ff00191690555b50505050565b603654604051636eb1769f60e11b815233600482015230602482015282916001600160a01b03169063dd62ed3e9060440160206040518083038186803b15801561088357600080fd5b505afa158015610897573d6000803e3d6000fd5b505050506040513d601f19601f820116820180604052508101906108bb9190610d57565b10156109025760405162461bcd60e51b8152602060048201526016602482015275696e73756666696369656e742d616c6c6f77616e636560501b60448201526064016101f0565b6036546035546040516323b872dd60e01b81523360048201526001600160a01b039182166024820152604481018490529116906323b872dd90606401602060405180830381600087803b15801561095857600080fd5b505af115801561096c573d6000803e3d6000fd5b505050506040513d601f19601f820116820180604052508101906109909190610d37565b6109cb5760405162461bcd60e51b815260206004820152600c60248201526b3230b496ba3930b739b332b960a11b60448201526064016101f0565b603560009054906101000a90046001600160a01b03166001600160a01b031663a6afed956040518163ffffffff1660e01b8152600401600060405180830381600087803b158015610a1b57600080fd5b505af1158015610a2f573d6000803e3d6000fd5b50506035546040516255f9e960e71b8152600481018590526001600160a01b039091169250632afcf4809150602401602060405180830381600087803b158015610a7857600080fd5b505af1158015610a8c573d6000803e3d6000fd5b505050506040513d601f19601f82011682018060405250810190610ab09190610d57565b506001600160a01b03828116600090815260346020526040908190206035549151636fb1cae760e11b8152600481018590529092919091169063df6395ce9060240160206040518083038186803b158015610b0a57600080fd5b505afa158015610b1e573d6000803e3d6000fd5b505050506040513d601f19601f82011682018060405250810190610b429190610d57565b8160010154610b519190610d6f565b60018201558054610b63908390610d6f565b8082556001820154604080516001600160a01b03871681526020810193909352820152606081018390527f54d1418bad720681f29214b1df22ba011e35c27664318487f4edcaea175669b8906080016103be565b600080610bc3836103cb565b6001600160a01b0384166000908152603460205260409020805491925090610beb9083610d6f565b949350505050565b6001600160a01b038116610c355760405162461bcd60e51b81526020600482015260096024820152683d32b93796b0b2323960b91b60448201526064016101f0565b603380546001600160a01b038381166001600160a01b031983168117909355604080519190921680825260208201939093527f0384899bd253d83b23daa4d29aaa2efe0563d1132b43101e9ad667235aeb951b910160405180910390a15050565b80356001600160a01b0381168114610cad57600080fd5b919050565b600060208284031215610cc3578081fd5b61046f82610c96565b600080600060608486031215610ce0578182fd5b610ce984610c96565b9250610cf760208501610c96565b9150610d0560408501610c96565b90509250925092565b60008060408385031215610d20578182fd5b610d2983610c96565b946020939093013593505050565b600060208284031215610d48578081fd5b8151801515811461046f578182fd5b600060208284031215610d68578081fd5b5051919050565b60008219821115610d8257610d82610d9e565b500190565b600082821015610d9957610d99610d9e565b500390565b634e487b7160e01b600052601160045260246000fdfea26469706673582212206ac8fba4bc68f09101735192de0aaccde8ecb393303694f47fa50cf19bcdae7e64736f6c63430008040033",
  "linkReferences": {},
  "deployedLinkReferences": {}
}