{
  "_format": "hh-sol-artifact-1",
  "contractName": "All41Exchange",
  "sourceName": "contracts/core/All41Exchange.sol",
  "abi": [
    {
      "anonymous": false,
      "inputs": [
        {
          "indexed": false,
          "internalType": "address",
          "name": "wallet",
          "type": "address"
        },
        {
          "indexed": false,
          "internalType": "address",
          "name": "sender",
          "type": "address"
        },
        {
          "indexed": false,
          "internalType": "uint256",
          "name": "dai",
          "type": "uint256"
        },
        {
          "indexed": false,
          "internalType": "uint256",
          "name": "cDai",
          "type": "uint256"
        },
        {
          "indexed": false,
          "internalType": "uint256",
          "name": "total",
          "type": "uint256"
        },
        {
          "indexed": false,
          "internalType": "uint256",
          "name": "daiAmount",
          "type": "uint256"
        },
        {
          "indexed": false,
          "internalType": "uint256",
          "name": "tradingFeeInvested",
          "type": "uint256"
        }
      ],
      "name": "DepositedState",
      "type": "event"
    },
    {
      "anonymous": false,
      "inputs": [
        {
          "indexed": false,
          "internalType": "address",
          "name": "oldOwner",
          "type": "address"
        },
        {
          "indexed": false,
          "internalType": "address",
          "name": "newOwner",
          "type": "address"
        }
      ],
      "name": "OwnershipChanged",
      "type": "event"
    },
    {
      "anonymous": false,
      "inputs": [
        {
          "indexed": false,
          "internalType": "uint256",
          "name": "redeemed",
          "type": "uint256"
        }
      ],
      "name": "TradingFeeRedeemed",
      "type": "event"
    },
    {
      "anonymous": false,
      "inputs": [
        {
          "indexed": false,
          "internalType": "address",
          "name": "wallet",
          "type": "address"
        },
        {
          "indexed": false,
          "internalType": "uint256",
          "name": "dai",
          "type": "uint256"
        },
        {
          "indexed": false,
          "internalType": "uint256",
          "name": "cDai",
          "type": "uint256"
        },
        {
          "indexed": false,
          "internalType": "uint256",
          "name": "daiRedeemed",
          "type": "uint256"
        }
      ],
      "name": "WalletAmountRedeemed",
      "type": "event"
    },
    {
      "inputs": [],
      "name": "_tradingFeeRate",
      "outputs": [
        {
          "internalType": "uint256",
          "name": "",
          "type": "uint256"
        }
      ],
      "stateMutability": "view",
      "type": "function"
    },
    {
      "inputs": [
        {
          "internalType": "address",
          "name": "wallet",
          "type": "address"
        },
        {
          "internalType": "uint256",
          "name": "daiAmount",
          "type": "uint256"
        }
      ],
      "name": "depositToWalletPool",
      "outputs": [],
      "stateMutability": "nonpayable",
      "type": "function"
    },
    {
      "inputs": [
        {
          "internalType": "address",
          "name": "wallet",
          "type": "address"
        }
      ],
      "name": "getAmountInvested",
      "outputs": [
        {
          "internalType": "uint256",
          "name": "",
          "type": "uint256"
        }
      ],
      "stateMutability": "view",
      "type": "function"
    },
    {
      "inputs": [
        {
          "internalType": "address",
          "name": "wallet",
          "type": "address"
        }
      ],
      "name": "getAmountInvestedWithInterest",
      "outputs": [
        {
          "internalType": "uint256",
          "name": "",
          "type": "uint256"
        }
      ],
      "stateMutability": "view",
      "type": "function"
    },
    {
      "inputs": [
        {
          "internalType": "address",
          "name": "wallet",
          "type": "address"
        }
      ],
      "name": "getInterestPayable",
      "outputs": [
        {
          "internalType": "uint256",
          "name": "",
          "type": "uint256"
        }
      ],
      "stateMutability": "view",
      "type": "function"
    },
    {
      "inputs": [],
      "name": "getOwner",
      "outputs": [
        {
          "internalType": "address",
          "name": "",
          "type": "address"
        }
      ],
      "stateMutability": "view",
      "type": "function"
    },
    {
      "inputs": [],
      "name": "getTradingFeePayable",
      "outputs": [
        {
          "internalType": "uint256",
          "name": "",
          "type": "uint256"
        }
      ],
      "stateMutability": "view",
      "type": "function"
    },
    {
      "inputs": [
        {
          "internalType": "address",
          "name": "wallet",
          "type": "address"
        }
      ],
      "name": "getcDaiOwned",
      "outputs": [
        {
          "internalType": "uint256",
          "name": "",
          "type": "uint256"
        }
      ],
      "stateMutability": "view",
      "type": "function"
    },
    {
      "inputs": [
        {
          "internalType": "address",
          "name": "owner",
          "type": "address"
        },
        {
          "internalType": "address",
          "name": "interestManager",
          "type": "address"
        },
        {
          "internalType": "address",
          "name": "dai",
          "type": "address"
        },
        {
          "internalType": "uint256",
          "name": "tradingFeeRate",
          "type": "uint256"
        }
      ],
      "name": "initialize",
      "outputs": [],
      "stateMutability": "nonpayable",
      "type": "function"
    },
    {
      "inputs": [
        {
          "internalType": "address",
          "name": "newOwner",
          "type": "address"
        }
      ],
      "name": "setOwner",
      "outputs": [],
      "stateMutability": "nonpayable",
      "type": "function"
    },
    {
      "inputs": [
        {
          "internalType": "uint256",
          "name": "tradingFeeRate",
          "type": "uint256"
        }
      ],
      "name": "setTradingFeeRate",
      "outputs": [],
      "stateMutability": "nonpayable",
      "type": "function"
    },
    {
      "inputs": [
        {
          "internalType": "address",
          "name": "tradingFeeRecipient",
          "type": "address"
        }
      ],
      "name": "setTradingFeeRecipient",
      "outputs": [],
      "stateMutability": "nonpayable",
      "type": "function"
    },
    {
      "inputs": [
        {
          "internalType": "address",
          "name": "wallet",
          "type": "address"
        },
        {
          "internalType": "uint256",
          "name": "daiAmount",
          "type": "uint256"
        }
      ],
      "name": "withdrawAmount",
      "outputs": [],
      "stateMutability": "nonpayable",
      "type": "function"
    },
    {
      "inputs": [],
      "name": "withdrawTradingFee",
      "outputs": [],
      "stateMutability": "nonpayable",
      "type": "function"
    },
    {
      "inputs": [
        {
          "internalType": "address",
          "name": "wallet",
          "type": "address"
        }
      ],
      "name": "withdrawWalletInterest",
      "outputs": [],
      "stateMutability": "nonpayable",
      "type": "function"
    }
  ],
  "bytecode": "0x608060405234801561001057600080fd5b506112cf806100206000396000f3fe608060405234801561001057600080fd5b50600436106100f55760003560e01c8063736fe565116100975780639b44e71c116100665780639b44e71c14610202578063cf756fdf1461020a578063d487f5221461021d578063dd3cd37e1461023057600080fd5b8063736fe565146101a0578063818b9756146101b3578063893d20e8146101bb5780638d63d7d6146101d657600080fd5b80633472aee7116100d35780633472aee7146101355780633a2ddae114610151578063421ce88e1461017a578063577aca591461018d57600080fd5b80631091f67c146100fa57806313af40351461010f5780632e63523f14610122575b600080fd5b61010d6101083660046111c1565b610243565b005b61010d61011d366004611114565b61027b565b61010d610130366004611114565b6102b1565b61013e60375481565b6040519081526020015b60405180910390f35b61013e61015f366004611114565b6001600160a01b031660009081526034602052604090205490565b61010d610188366004611114565b610344565b61013e61019b366004611114565b610513565b61010d6101ae366004611178565b6105be565b61013e610855565b6033546040516001600160a01b039091168152602001610148565b61013e6101e4366004611114565b6001600160a01b031660009081526034602052604090206001015490565b61010d6108db565b61010d61021836600461112e565b610a94565b61010d61022b366004611178565b610bcf565b61013e61023e366004611114565b611020565b6033546001600160a01b031633146102765760405162461bcd60e51b815260040161026d906111f1565b60405180910390fd5b603755565b6033546001600160a01b031633146102a55760405162461bcd60e51b815260040161026d906111f1565b6102ae8161105c565b50565b6033546001600160a01b031633146102db5760405162461bcd60e51b815260040161026d906111f1565b6001600160a01b0381166103225760405162461bcd60e51b815260206004820152600e60248201526d696e76616c69642d706172616d7360901b604482015260640161026d565b603980546001600160a01b0319166001600160a01b0392909216919091179055565b6001600160a01b038116331461038d5760405162461bcd60e51b815260206004820152600e60248201526d1b9bdd0b585d5d1a1bdc9a5e995960921b604482015260640161026d565b603560009054906101000a90046001600160a01b03166001600160a01b031663a6afed956040518163ffffffff1660e01b8152600401600060405180830381600087803b1580156103dd57600080fd5b505af11580156103f1573d6000803e3d6000fd5b50505050600061040082610513565b90508061040b575050565b6001600160a01b038281166000908152603460205260409081902060355491516301e9a69560e41b81523360048201526024810185905290929190911690631e9a695090604401602060405180830381600087803b15801561046c57600080fd5b505af1158015610480573d6000803e3d6000fd5b505050506040513d601f19601f820116820180604052508101906104a491906111d9565b81600101546104b3919061126c565b600182018190558154604080516001600160a01b03871681526020810192909252810191909152606081018390527f4edc9432295f9d36f2293e6214ca7edbe86be2fb8fc0b8f9a06d6710ce6ca8e49060800160405180910390a1505050565b6001600160a01b03818116600090815260346020526040808220805460355460018301549351630d84d5e960e41b8152600481019490945293949193909291169063d84d5e909060240160206040518083038186803b15801561057557600080fd5b505afa158015610589573d6000803e3d6000fd5b505050506040513d601f19601f820116820180604052508101906105ad91906111d9565b6105b7919061126c565b9392505050565b6001600160a01b03821633146106075760405162461bcd60e51b815260206004820152600e60248201526d1b9bdd0b585d5d1a1bdc9a5e995960921b604482015260640161026d565b603560009054906101000a90046001600160a01b03166001600160a01b031663a6afed956040518163ffffffff1660e01b8152600401600060405180830381600087803b15801561065757600080fd5b505af115801561066b573d6000803e3d6000fd5b50505050600061067a83611020565b9050600061069d846001600160a01b031660009081526034602052604090205490565b905060006106aa85610513565b9050826106b8575050505050565b60006106c4858561126c565b10156107215760405162461bcd60e51b815260206004820152602660248201527f646169416d6f756e742067726561746572207468616e20746f74616c52656465604482015265656d61626c6560d01b606482015260840161026d565b6001600160a01b038581166000908152603460205260409081902060355491516301e9a69560e41b81523360048201526024810188905290929190911690631e9a695090604401602060405180830381600087803b15801561078257600080fd5b505af1158015610796573d6000803e3d6000fd5b505050506040513d601f19601f820116820180604052508101906107ba91906111d9565b81600101546107c9919061126c565b6001820155818511156107f65760006107e2838761126c565b82549091506107f290829061126c565b8255505b80546001820154604080516001600160a01b038a1681526020810193909352820152606081018690527f4edc9432295f9d36f2293e6214ca7edbe86be2fb8fc0b8f9a06d6710ce6ca8e4906080015b60405180910390a1505050505050565b603554603854604051630d84d5e960e41b815260048101919091526000916001600160a01b03169063d84d5e909060240160206040518083038186803b15801561089e57600080fd5b505afa1580156108b2573d6000803e3d6000fd5b505050506040513d601f19601f820116820180604052508101906108d691906111d9565b905090565b603854806108e65750565b603560009054906101000a90046001600160a01b03166001600160a01b031663a6afed956040518163ffffffff1660e01b8152600401600060405180830381600087803b15801561093657600080fd5b505af115801561094a573d6000803e3d6000fd5b505060006038819055603554604051630d84d5e960e41b8152600481018690529193506001600160a01b0316915063d84d5e909060240160206040518083038186803b15801561099957600080fd5b505afa1580156109ad573d6000803e3d6000fd5b505050506040513d601f19601f820116820180604052508101906109d191906111d9565b6035546039546040516301e9a69560e41b81526001600160a01b039182166004820152602481018490529293501690631e9a695090604401602060405180830381600087803b158015610a2357600080fd5b505af1158015610a37573d6000803e3d6000fd5b505050506040513d601f19601f82011682018060405250810190610a5b91906111d9565b506040518181527f6050011a2a4b1d11e80a730cfe9952a593658cda72506aeceecaa02f1dc01c82906020015b60405180910390a15050565b600054610100900460ff1680610aa95750303b155b80610ab7575060005460ff16155b610af95760405162461bcd60e51b8152602060048201526013602482015272185b1c9958591e4b5a5b9a5d1a585b1a5e9959606a1b604482015260640161026d565b600054610100900460ff16158015610b1b576000805461ffff19166101011790555b6001600160a01b03841615801590610b3b57506001600160a01b03831615155b610b785760405162461bcd60e51b815260206004820152600e60248201526d696e76616c69642d706172616d7360901b604482015260640161026d565b610b818561105c565b603580546001600160a01b038087166001600160a01b031992831617909255603680549286169290911691909117905560378290558015610bc8576000805461ff00191690555b5050505050565b600061271060375483610be2919061124d565b610bec919061122d565b90506000610bfa8284611215565b603654604051636eb1769f60e11b815233600482015230602482015291925082916001600160a01b039091169063dd62ed3e9060440160206040518083038186803b158015610c4857600080fd5b505afa158015610c5c573d6000803e3d6000fd5b505050506040513d601f19601f82011682018060405250810190610c8091906111d9565b1015610cc75760405162461bcd60e51b8152602060048201526016602482015275696e73756666696369656e742d616c6c6f77616e636560501b604482015260640161026d565b6036546035546040516323b872dd60e01b81523360048201526001600160a01b039182166024820152604481018490529116906323b872dd90606401602060405180830381600087803b158015610d1d57600080fd5b505af1158015610d31573d6000803e3d6000fd5b505050506040513d601f19601f82011682018060405250810190610d5591906111a1565b610d905760405162461bcd60e51b815260206004820152600c60248201526b3230b496ba3930b739b332b960a11b604482015260640161026d565b603560009054906101000a90046001600160a01b03166001600160a01b031663a6afed956040518163ffffffff1660e01b8152600401600060405180830381600087803b158015610de057600080fd5b505af1158015610df4573d6000803e3d6000fd5b50506035546040516255f9e960e71b8152600481018590526001600160a01b039091169250632afcf4809150602401602060405180830381600087803b158015610e3d57600080fd5b505af1158015610e51573d6000803e3d6000fd5b505050506040513d601f19601f82011682018060405250810190610e7591906111d9565b50603554604051636fb1cae760e11b8152600481018490526000916001600160a01b03169063df6395ce9060240160206040518083038186803b158015610ebb57600080fd5b505afa158015610ecf573d6000803e3d6000fd5b505050506040513d601f19601f82011682018060405250810190610ef391906111d9565b603854610f009190611215565b60388190556001600160a01b03868116600090815260346020526040908190206035549151636fb1cae760e11b8152600481018990529394509291169063df6395ce9060240160206040518083038186803b158015610f5e57600080fd5b505afa158015610f72573d6000803e3d6000fd5b505050506040513d601f19601f82011682018060405250810190610f9691906111d9565b8160010154610fa59190611215565b60018201558054610fb7908690611215565b8082556001820154604080516001600160a01b038a1681523360208201529081019290925260608201526080810184905260a0810186905260c081018390527f529893e1b8eff1d4dd24cc9b6ac17b05621c0c09e1311b08ac31f878f19f4c139060e001610845565b60008061102c83610513565b6001600160a01b03841660009081526034602052604090208054919250906110549083611215565b949350505050565b6001600160a01b03811661109e5760405162461bcd60e51b81526020600482015260096024820152683d32b93796b0b2323960b91b604482015260640161026d565b603380546001600160a01b038381166001600160a01b031983168117909355604080519190921680825260208201939093527f0384899bd253d83b23daa4d29aaa2efe0563d1132b43101e9ad667235aeb951b9101610a88565b80356001600160a01b038116811461110f57600080fd5b919050565b600060208284031215611125578081fd5b6105b7826110f8565b60008060008060808587031215611143578283fd5b61114c856110f8565b935061115a602086016110f8565b9250611168604086016110f8565b9396929550929360600135925050565b6000806040838503121561118a578182fd5b611193836110f8565b946020939093013593505050565b6000602082840312156111b2578081fd5b815180151581146105b7578182fd5b6000602082840312156111d2578081fd5b5035919050565b6000602082840312156111ea578081fd5b5051919050565b6020808252600a908201526937b7363c96b7bbb732b960b11b604082015260600190565b6000821982111561122857611228611283565b500190565b60008261124857634e487b7160e01b81526012600452602481fd5b500490565b600081600019048311821515161561126757611267611283565b500290565b60008282101561127e5761127e611283565b500390565b634e487b7160e01b600052601160045260246000fdfea2646970667358221220151926f00c087975bf9b3ee1149b9c6fdbf6407a7ed18593586bfaefcc61597764736f6c63430008040033",
  "linkReferences": {},
  "deployedLinkReferences": {}
}