{
  "_format": "hh-sol-artifact-1",
  "contractName": "All41Exchange",
  "sourceName": "contracts/core/All41Exchange.sol",
  "abi": [
    {
      "anonymous": false,
      "inputs": [
        {
          "indexed": false,
          "internalType": "address",
          "name": "wallet",
          "type": "address"
        },
        {
          "indexed": false,
          "internalType": "uint256",
          "name": "dai",
          "type": "uint256"
        },
        {
          "indexed": false,
          "internalType": "uint256",
          "name": "cDai",
          "type": "uint256"
        },
        {
          "indexed": false,
          "internalType": "uint256",
          "name": "total",
          "type": "uint256"
        },
        {
          "indexed": false,
          "internalType": "uint256",
          "name": "daiAmount",
          "type": "uint256"
        },
        {
          "indexed": false,
          "internalType": "uint256",
          "name": "tradingFeeInvested",
          "type": "uint256"
        }
      ],
      "name": "DepositedState",
      "type": "event"
    },
    {
      "anonymous": false,
      "inputs": [
        {
          "indexed": false,
          "internalType": "address",
          "name": "oldOwner",
          "type": "address"
        },
        {
          "indexed": false,
          "internalType": "address",
          "name": "newOwner",
          "type": "address"
        }
      ],
      "name": "OwnershipChanged",
      "type": "event"
    },
    {
      "anonymous": false,
      "inputs": [
        {
          "indexed": false,
          "internalType": "uint256",
          "name": "redeemed",
          "type": "uint256"
        }
      ],
      "name": "TradingFeeRedeemed",
      "type": "event"
    },
    {
      "anonymous": false,
      "inputs": [
        {
          "indexed": false,
          "internalType": "address",
          "name": "wallet",
          "type": "address"
        },
        {
          "indexed": false,
          "internalType": "uint256",
          "name": "investmentToken",
          "type": "uint256"
        },
        {
          "indexed": false,
          "internalType": "uint256",
          "name": "daiRedeemed",
          "type": "uint256"
        }
      ],
      "name": "WalletAmountRedeemed",
      "type": "event"
    },
    {
      "inputs": [],
      "name": "_tradingFeeRate",
      "outputs": [
        {
          "internalType": "uint256",
          "name": "",
          "type": "uint256"
        }
      ],
      "stateMutability": "view",
      "type": "function"
    },
    {
      "inputs": [
        {
          "internalType": "address",
          "name": "wallet",
          "type": "address"
        },
        {
          "internalType": "uint256",
          "name": "daiAmount",
          "type": "uint256"
        }
      ],
      "name": "depositToWalletPool",
      "outputs": [],
      "stateMutability": "nonpayable",
      "type": "function"
    },
    {
      "inputs": [
        {
          "internalType": "address",
          "name": "wallet",
          "type": "address"
        }
      ],
      "name": "getAmountInvested",
      "outputs": [
        {
          "internalType": "uint256",
          "name": "",
          "type": "uint256"
        }
      ],
      "stateMutability": "view",
      "type": "function"
    },
    {
      "inputs": [
        {
          "internalType": "address",
          "name": "wallet",
          "type": "address"
        }
      ],
      "name": "getAmountInvestedWithInterest",
      "outputs": [
        {
          "internalType": "uint256",
          "name": "",
          "type": "uint256"
        }
      ],
      "stateMutability": "view",
      "type": "function"
    },
    {
      "inputs": [
        {
          "internalType": "address",
          "name": "wallet",
          "type": "address"
        }
      ],
      "name": "getInterestPayable",
      "outputs": [
        {
          "internalType": "uint256",
          "name": "",
          "type": "uint256"
        }
      ],
      "stateMutability": "view",
      "type": "function"
    },
    {
      "inputs": [],
      "name": "getOwner",
      "outputs": [
        {
          "internalType": "address",
          "name": "",
          "type": "address"
        }
      ],
      "stateMutability": "view",
      "type": "function"
    },
    {
      "inputs": [],
      "name": "getTradingFeePayable",
      "outputs": [
        {
          "internalType": "uint256",
          "name": "",
          "type": "uint256"
        }
      ],
      "stateMutability": "view",
      "type": "function"
    },
    {
      "inputs": [
        {
          "internalType": "address",
          "name": "wallet",
          "type": "address"
        }
      ],
      "name": "getcDaiOwned",
      "outputs": [
        {
          "internalType": "uint256",
          "name": "",
          "type": "uint256"
        }
      ],
      "stateMutability": "view",
      "type": "function"
    },
    {
      "inputs": [
        {
          "internalType": "address",
          "name": "owner",
          "type": "address"
        },
        {
          "internalType": "address",
          "name": "interestManager",
          "type": "address"
        },
        {
          "internalType": "address",
          "name": "dai",
          "type": "address"
        },
        {
          "internalType": "uint256",
          "name": "tradingFeeRate",
          "type": "uint256"
        }
      ],
      "name": "initialize",
      "outputs": [],
      "stateMutability": "nonpayable",
      "type": "function"
    },
    {
      "inputs": [
        {
          "internalType": "address",
          "name": "newOwner",
          "type": "address"
        }
      ],
      "name": "setOwner",
      "outputs": [],
      "stateMutability": "nonpayable",
      "type": "function"
    },
    {
      "inputs": [
        {
          "internalType": "uint256",
          "name": "tradingFeeRate",
          "type": "uint256"
        }
      ],
      "name": "setTradingFeeRate",
      "outputs": [],
      "stateMutability": "nonpayable",
      "type": "function"
    },
    {
      "inputs": [
        {
          "internalType": "address",
          "name": "tradingFeeRecipient",
          "type": "address"
        }
      ],
      "name": "setTradingFeeRecipient",
      "outputs": [],
      "stateMutability": "nonpayable",
      "type": "function"
    },
    {
      "inputs": [
        {
          "internalType": "address",
          "name": "wallet",
          "type": "address"
        },
        {
          "internalType": "uint256",
          "name": "daiAmount",
          "type": "uint256"
        }
      ],
      "name": "withdrawAmount",
      "outputs": [],
      "stateMutability": "nonpayable",
      "type": "function"
    },
    {
      "inputs": [],
      "name": "withdrawTradingFee",
      "outputs": [],
      "stateMutability": "nonpayable",
      "type": "function"
    },
    {
      "inputs": [
        {
          "internalType": "address",
          "name": "wallet",
          "type": "address"
        }
      ],
      "name": "withdrawWalletInterest",
      "outputs": [],
      "stateMutability": "nonpayable",
      "type": "function"
    }
  ],
  "bytecode": "0x608060405234801561001057600080fd5b506112b7806100206000396000f3fe608060405234801561001057600080fd5b50600436106100f55760003560e01c8063736fe565116100975780639b44e71c116100665780639b44e71c14610202578063cf756fdf1461020a578063d487f5221461021d578063dd3cd37e1461023057600080fd5b8063736fe565146101a0578063818b9756146101b3578063893d20e8146101bb5780638d63d7d6146101d657600080fd5b80633472aee7116100d35780633472aee7146101355780633a2ddae114610151578063421ce88e1461017a578063577aca591461018d57600080fd5b80631091f67c146100fa57806313af40351461010f5780632e63523f14610122575b600080fd5b61010d6101083660046111a9565b610243565b005b61010d61011d3660046110fc565b61027b565b61010d6101303660046110fc565b6102b1565b61013e60375481565b6040519081526020015b60405180910390f35b61013e61015f3660046110fc565b6001600160a01b031660009081526034602052604090205490565b61010d6101883660046110fc565b610344565b61013e61019b3660046110fc565b610509565b61010d6101ae366004611160565b6105b4565b61013e610844565b6033546040516001600160a01b039091168152602001610148565b61013e6101e43660046110fc565b6001600160a01b031660009081526034602052604090206001015490565b61010d6108ca565b61010d610218366004611116565b610a83565b61010d61022b366004611160565b610bbe565b61013e61023e3660046110fc565b611008565b6033546001600160a01b031633146102765760405162461bcd60e51b815260040161026d906111d9565b60405180910390fd5b603755565b6033546001600160a01b031633146102a55760405162461bcd60e51b815260040161026d906111d9565b6102ae81611044565b50565b6033546001600160a01b031633146102db5760405162461bcd60e51b815260040161026d906111d9565b6001600160a01b0381166103225760405162461bcd60e51b815260206004820152600e60248201526d696e76616c69642d706172616d7360901b604482015260640161026d565b603980546001600160a01b0319166001600160a01b0392909216919091179055565b6001600160a01b038116331461038d5760405162461bcd60e51b815260206004820152600e60248201526d1b9bdd0b585d5d1a1bdc9a5e995960921b604482015260640161026d565b603560009054906101000a90046001600160a01b03166001600160a01b031663a6afed956040518163ffffffff1660e01b8152600401600060405180830381600087803b1580156103dd57600080fd5b505af11580156103f1573d6000803e3d6000fd5b50505050600061040082610509565b90508061040b575050565b6001600160a01b038281166000908152603460205260409081902060355491516301e9a69560e41b81523360048201526024810185905290929190911690631e9a695090604401602060405180830381600087803b15801561046c57600080fd5b505af1158015610480573d6000803e3d6000fd5b505050506040513d601f19601f820116820180604052508101906104a491906111c1565b81600101546104b39190611254565b60018201819055604080516001600160a01b0386168152602081019290925281018390527feb5866fee924cad8274ef4f3f2fa3d6b4645a190e5d4edb4cf8e5e521a359c069060600160405180910390a1505050565b6001600160a01b03818116600090815260346020526040808220805460355460018301549351630d84d5e960e41b8152600481019490945293949193909291169063d84d5e909060240160206040518083038186803b15801561056b57600080fd5b505afa15801561057f573d6000803e3d6000fd5b505050506040513d601f19601f820116820180604052508101906105a391906111c1565b6105ad9190611254565b9392505050565b6001600160a01b03821633146105fd5760405162461bcd60e51b815260206004820152600e60248201526d1b9bdd0b585d5d1a1bdc9a5e995960921b604482015260640161026d565b603560009054906101000a90046001600160a01b03166001600160a01b031663a6afed956040518163ffffffff1660e01b8152600401600060405180830381600087803b15801561064d57600080fd5b505af1158015610661573d6000803e3d6000fd5b50505050600061067083611008565b90506000610693846001600160a01b031660009081526034602052604090205490565b905060006106a085610509565b9050826106ae575050505050565b60006106ba8585611254565b10156107175760405162461bcd60e51b815260206004820152602660248201527f646169416d6f756e742067726561746572207468616e20746f74616c52656465604482015265656d61626c6560d01b606482015260840161026d565b6001600160a01b038581166000908152603460205260409081902060355491516301e9a69560e41b81523360048201526024810188905290929190911690631e9a695090604401602060405180830381600087803b15801561077857600080fd5b505af115801561078c573d6000803e3d6000fd5b505050506040513d601f19601f820116820180604052508101906107b091906111c1565b81600101546107bf9190611254565b6001820155818511156107ec5760006107d88387611254565b82549091506107e8908290611254565b8255505b6001810154604080516001600160a01b0389168152602081019290925281018690527feb5866fee924cad8274ef4f3f2fa3d6b4645a190e5d4edb4cf8e5e521a359c06906060015b60405180910390a1505050505050565b603554603854604051630d84d5e960e41b815260048101919091526000916001600160a01b03169063d84d5e909060240160206040518083038186803b15801561088d57600080fd5b505afa1580156108a1573d6000803e3d6000fd5b505050506040513d601f19601f820116820180604052508101906108c591906111c1565b905090565b603854806108d55750565b603560009054906101000a90046001600160a01b03166001600160a01b031663a6afed956040518163ffffffff1660e01b8152600401600060405180830381600087803b15801561092557600080fd5b505af1158015610939573d6000803e3d6000fd5b505060006038819055603554604051630d84d5e960e41b8152600481018690529193506001600160a01b0316915063d84d5e909060240160206040518083038186803b15801561098857600080fd5b505afa15801561099c573d6000803e3d6000fd5b505050506040513d601f19601f820116820180604052508101906109c091906111c1565b6035546039546040516301e9a69560e41b81526001600160a01b039182166004820152602481018490529293501690631e9a695090604401602060405180830381600087803b158015610a1257600080fd5b505af1158015610a26573d6000803e3d6000fd5b505050506040513d601f19601f82011682018060405250810190610a4a91906111c1565b506040518181527f6050011a2a4b1d11e80a730cfe9952a593658cda72506aeceecaa02f1dc01c82906020015b60405180910390a15050565b600054610100900460ff1680610a985750303b155b80610aa6575060005460ff16155b610ae85760405162461bcd60e51b8152602060048201526013602482015272185b1c9958591e4b5a5b9a5d1a585b1a5e9959606a1b604482015260640161026d565b600054610100900460ff16158015610b0a576000805461ffff19166101011790555b6001600160a01b03841615801590610b2a57506001600160a01b03831615155b610b675760405162461bcd60e51b815260206004820152600e60248201526d696e76616c69642d706172616d7360901b604482015260640161026d565b610b7085611044565b603580546001600160a01b038087166001600160a01b031992831617909255603680549286169290911691909117905560378290558015610bb7576000805461ff00191690555b5050505050565b600061271060375483610bd19190611235565b610bdb9190611215565b90506000610be982846111fd565b603654604051636eb1769f60e11b815233600482015230602482015291925082916001600160a01b039091169063dd62ed3e9060440160206040518083038186803b158015610c3757600080fd5b505afa158015610c4b573d6000803e3d6000fd5b505050506040513d601f19601f82011682018060405250810190610c6f91906111c1565b1015610cb65760405162461bcd60e51b8152602060048201526016602482015275696e73756666696369656e742d616c6c6f77616e636560501b604482015260640161026d565b6036546035546040516323b872dd60e01b81523360048201526001600160a01b039182166024820152604481018490529116906323b872dd90606401602060405180830381600087803b158015610d0c57600080fd5b505af1158015610d20573d6000803e3d6000fd5b505050506040513d601f19601f82011682018060405250810190610d449190611189565b610d7f5760405162461bcd60e51b815260206004820152600c60248201526b3230b496ba3930b739b332b960a11b604482015260640161026d565b603560009054906101000a90046001600160a01b03166001600160a01b031663a6afed956040518163ffffffff1660e01b8152600401600060405180830381600087803b158015610dcf57600080fd5b505af1158015610de3573d6000803e3d6000fd5b50506035546040516255f9e960e71b8152600481018590526001600160a01b039091169250632afcf4809150602401602060405180830381600087803b158015610e2c57600080fd5b505af1158015610e40573d6000803e3d6000fd5b505050506040513d601f19601f82011682018060405250810190610e6491906111c1565b50603554604051636fb1cae760e11b8152600481018490526000916001600160a01b03169063df6395ce9060240160206040518083038186803b158015610eaa57600080fd5b505afa158015610ebe573d6000803e3d6000fd5b505050506040513d601f19601f82011682018060405250810190610ee291906111c1565b603854610eef91906111fd565b60388190556001600160a01b03868116600090815260346020526040908190206035549151636fb1cae760e11b8152600481018990529394509291169063df6395ce9060240160206040518083038186803b158015610f4d57600080fd5b505afa158015610f61573d6000803e3d6000fd5b505050506040513d601f19601f82011682018060405250810190610f8591906111c1565b8160010154610f9491906111fd565b60018201558054610fa69086906111fd565b8082556001820154604080516001600160a01b038a1681526020810193909352820152606081018490526080810186905260a081018390527f6c5126503c2c6238112893262666fce002d94c31f35e887932fa9fb3a79a8e779060c001610834565b60008061101483610509565b6001600160a01b038416600090815260346020526040902080549192509061103c90836111fd565b949350505050565b6001600160a01b0381166110865760405162461bcd60e51b81526020600482015260096024820152683d32b93796b0b2323960b91b604482015260640161026d565b603380546001600160a01b038381166001600160a01b031983168117909355604080519190921680825260208201939093527f0384899bd253d83b23daa4d29aaa2efe0563d1132b43101e9ad667235aeb951b9101610a77565b80356001600160a01b03811681146110f757600080fd5b919050565b60006020828403121561110d578081fd5b6105ad826110e0565b6000806000806080858703121561112b578283fd5b611134856110e0565b9350611142602086016110e0565b9250611150604086016110e0565b9396929550929360600135925050565b60008060408385031215611172578182fd5b61117b836110e0565b946020939093013593505050565b60006020828403121561119a578081fd5b815180151581146105ad578182fd5b6000602082840312156111ba578081fd5b5035919050565b6000602082840312156111d2578081fd5b5051919050565b6020808252600a908201526937b7363c96b7bbb732b960b11b604082015260600190565b600082198211156112105761121061126b565b500190565b60008261123057634e487b7160e01b81526012600452602481fd5b500490565b600081600019048311821515161561124f5761124f61126b565b500290565b6000828210156112665761126661126b565b500390565b634e487b7160e01b600052601160045260246000fdfea26469706673582212204ae27669af9f0aaffe80792395d973cca7053268d10aaed5f989dfc6fec9ab2664736f6c63430008040033",
  "linkReferences": {},
  "deployedLinkReferences": {}
}